:100000000C94E5000C940D010C940D010C940D0161
:100010000C940D010C940D010C940D010C940D0128
:100020000C940D010C940D010C943C270C94AB27FF
:100030000C940D010C940D010C940D010C940D0108
:100040000C940D010C940D010C940D010C940D01F8
:100050000C940D010C940D010C940D010C94DD29F0
:100060000C940D010C940D010C940D010C940D01D8
:100070000C940D010C940D010C940D010C940D01C8
:100080000C940D010C940D010C940D010C940D01B8
:100090000C94272A0C940D010C940D010C940D0165
:1000A0000C940D010C940D010C940D014661696CCA
:1000B000656420746F20626F6F7420564C35334C2A
:1000C000305800507265737320427574746F6E20DF
:1000D00000070605040100080A0B0C0D09000000CA
:1000E00000240027002A002D003000000000002519
:1000F0000028002B002E0031000404040404030433
:1001000005020202020403020202020606060606B5
:1001100006040402020204040408020110408040A4
:10012000102040804080080204018040201002011D
:10013000108010204040200000000200090F000045
:10014000030401000C00000000000000000000009B
:10015000000000000000080B000202020000090479
:100160000000010202000005240010010524010125
:10017000010424020605240600010705810310007E
:100180004009040100020A000000070502024000C5
:100190000007058302400000040309041201000265
:1001A000EF02014098879887000101020301556E14
:1001B0006B6E6F776E005363686E6F6F6720546865
:1001C000726F74746C650000462B11241FBECFEF54
:1001D000DAE0DEBFCDBF13E0A0E0B1E0ECEEF7E681
:1001E00002C005900D92A236B107D9F728E0A2E629
:1001F000B3E001C01D92AB35B207E1F710E0C5EEE8
:10020000D0E004C02197FE010E94B932C43ED1075C
:10021000C9F70E94412D0C94F4330C940000CF9345
:10022000DF9300D000D0CDB7DEB719821A821B82CF
:100230001C8289819A81AB81BC818A3F9105A1058D
:10024000B10568F4000089819A81AB81BC81019677
:10025000A11DB11D89839A83AB83BC83EACF80E063
:100260000F900F900F900F90DF91CF9108954F92C4
:100270005F926F927F928F929F92AF92BF92CF9236
:10028000DF92EF92FF920F931F93CF93F9010FEF3D
:100290001FEF980100831183228333834A015B019E
:1002A000B3E0B694A79497948794BA95D1F76A016E
:1002B0007B0127E0C222DD24EE24FF249501840186
:1002C000C0E0063011052105310508F041C0C1111B
:1002D0003FC0DC01A00FB11F6C91412C512C3201A9
:1002E00080169106A206B30649F470E00C2C02C0F9
:1002F000759567950A94E2F726013701462F50E07D
:1003000060FF17C0B901A801A3E0440F551F661F85
:10031000771FAA95D1F7440E551E661E771E4082A0
:10032000518262827382C1E00F5F1F4F2F4F3F4F98
:10033000C8CFBA01759567954FEF441A540A640AFD
:10034000740A48E04416510461047104B9F6ECCF14
:10035000CF911F910F91FF90EF90DF90CF90BF90C2
:10036000AF909F908F907F906F905F904F90089587
:1003700008950895CF92DF92EF92FF920F931F930B
:10038000CF93DF93D901E8016A01F90142175307BE
:1003900014F06901FA01882309F440C0CB016C15FF
:1003A0007D050CF4C6019F018E179F070CF49C017C
:1003B000A417B50734F4CF01821B930B9C012C0DBD
:1003C0003D1D0D2C000CEE08FF08032E000C440B05
:1003D000550B2C193D094E095F09AEEFBFEF0E9486
:1003E00045329F01FF0F440B550B2C193D094E0957
:1003F0005F090E942632DA01C9018F5F9F47A10978
:10040000B1098883998382E090E0DF91CF911F91B9
:100410000F91FF90EF90DF90CF90089590E080E0F3
:10042000F4CFFC018091A805882311F13FB7F8941F
:1004300082E08093E9002091F200822F90E018166C
:10044000190614F481E090E0882339F0289A44E6F4
:100450004093A7054091F1004083222339F0209179
:10046000F200211103C02BE62093E8003FBF08955E
:100470008FEF9FEF08954091790550917A05209173
:1004800077053091780542175307B4F49091E8004E
:100490009570E1F39091E80092FD19C08093F1000E
:1004A0008091790590917A0501968F739927892B10
:1004B00019F48EEF8093E8008091790590917A0588
:1004C000019690937A058093790581E0089580E004
:1004D0000895EF92FF920F931F93CF93DF93F82E1F
:1004E000192FE62E042F81E0860F880F0E943B0211
:1004F00083E00E943B02CF2DD12FEC0EFD2EF11C8C
:10050000CE15DF05B9F007FF13C0FE0184910E94EC
:100510003B02182F80E00E943B028123219681112B
:10052000EFCFDF91CF911F910F91FF90EF90089542
:100530008881EDCF81E0F5CFDF92EF92FF920F93AC
:100540001F93CF93DF93D82E8A01EB017B01E40E3A
:10055000F51ECE15DF0559F0D7FE12C0FE018491BD
:100560000E943B0221968111F4CF0FEF1FEFC801CB
:10057000DF91CF911F910F91FF90EF90DF90089541
:100580008881EECF2FB7F89487708093E90090911F
:10059000E800892F807295FF04C09091F20080E4FA
:1005A000891B2FBF0895615030F02091F100FC01AC
:1005B00020830196F8CF289A84E68093A7050895B2
:1005C00080916F0581110DC082E080936B0584E0FE
:1005D00080936C0510926E0510926D0581E08093FA
:1005E0006F058BE695E008950F931F93CF93DF93EC
:1005F0001F92CDB7DEB782E0898342E450E066E522
:1006000071E080E80E949C020E94E002DC011296E8
:100610000D911C910115110589F0D801ED91FC9106
:100620000280F381E02DBE016F5F7F4FC801099505
:1006300097FD04C0F80100851185ECCF89810F90EA
:10064000DF91CF911F910F910895CF93DF931F9268
:10065000CDB7DEB76983DC01ED91FC910280F381B7
:10066000E02D41E050E0BE016F5F7F4F09950F9094
:10067000DF91CF9108950F931F93CF93DF938C0158
:10068000D0E0C0E0F801EC0FFD1F6491662341F05B
:100690008DEF95E00E942503892B11F02196F2CF72
:1006A000CE01DF91CF911F910F91089583E0809348
:1006B000E9008091F200882319F08AE38093E80032
:1006C000089583E00E94C20290E00895CF93DF93E3
:1006D0001F92CDB7DEB7FC018485958597FD08C0D4
:1006E0002FEF3FEF358724870F90DF91CF9108954B
:1006F000CE0101960E941102019719F4898190E0C0
:10070000F3CF8FEF9FEFF0CF0F931F93CF93DF9334
:100710001F92CDB7DEB78C01FC018485958597FFCC
:100720000BC0CE0101960E941102019771F48981DC
:1007300090E0F80195878487F801848595850F906E
:10074000DF91CF911F910F9108958FEF9FEFF1CF20
:10075000FC018485958597FD0BC09FB7F89482E0D6
:100760008093E9008091F2009FBF90E00196089588
:100770009FB7F89482E08093E9008091F2009FBFD8
:1007800090E00895282F30E0F901E95CFE4F949144
:10079000F901E85EFE4F849127503F4FF901249103
:1007A000222309F430C09923E9F091509F30D0F40E
:1007B000E92FF0E0E252FC4F0C94B9320C04100423
:1007C000ED0304040804F203F203F2031304190412
:1007D0001D0421042704F2032B04909180009F77CD
:1007E00090938000E22FF0E0EE0FFF1FE551FF4FE6
:1007F000A591B4919FB7F894EC91611132C08095A6
:100800008E238C939FBF0895909180009F7DE8CFA9
:1008100090918000977FE4CF94B59F7794BDE2CF0D
:1008200094B59F7DFBCF909190009F77909390001F
:10083000D9CF909190009F7DF9CF90919000977FB4
:10084000F5CF9091C0009F779093C000CBCF90914F
:10085000C0009F7DF9CF9091C200977F9093C20016
:10086000C1CF8E2BCECFCF93DF9390E0FC01E85E1B
:10087000FE4F249187509F4FFC0184918823C9F03B
:1008800090E0880F991FFC01E352FF4FA591B491AE
:10089000FC01E551FF4FC591D49161110DC09FB787
:1008A000F8948C91209582238C9388812823288327
:1008B0009FBFDF91CF910895623051F49FB7F894B4
:1008C0003C91822F809583238C93E8812E2BEFCF50
:1008D0008FB7F894EC912E2B2C938FBFEACF8251D7
:1008E000E82FF0E0EF52FF4FE49190917B008E2FC4
:1008F000880F880F80729F7D892B80937B00E77023
:10090000E064E0937C0080917A00806480937A00B8
:1009100080917A0086FDFCCF8091780090917900DB
:1009200008953FB7F8948091670590916805A0916C
:100930006905B0916A0526B5A89B05C02F3F19F03F
:100940000196A11DB11D3FBFBA2FA92F982F88274F
:10095000BC01CD01620F711D811D911D42E0660F2A
:10096000771F881F991F4A95D1F708958F929F92FC
:10097000AF92BF92CF92DF92EF92FF924B015C0158
:100980000E9491046B017C010E9491046C197D0905
:100990008E099F09683E734081059105A8F321E007
:1009A000821A9108A108B10888EEC80E83E0D81E0B
:1009B000E11CF11C81149104A104B10429F7FF90FA
:1009C000EF90DF90CF90BF90AF909F908F90089561
:1009D0007F928F929F92AF92BF92CF92DF92EF92CF
:1009E000FF920F931F93CF93DF93C82E8B017A0151
:1009F0008091A805811110C08FEF9FEFDF91CF91FB
:100A00001F910F91FF90EF90DF90CF90BF90AF902C
:100A10009F908F907F90089580917D0580FF05C005
:100A20008091E00082608093E000CE2DDF2DD12CFC
:100A30008AEFB82E8C2D8770982E8C2D8072882E80
:100A40008C2D8074782E9AE3A92E209719F4DD203E
:100A500009F452C08C2D0E94C20281110AC0BA94BE
:100A6000BB2051F261E070E080E090E00E94B604AB
:100A7000ECCF8C171D0611F00CF08C2F9FB7F8945B
:100A80009092E9002091E80025FD02C09FBFDDCFD4
:100A9000282F30E0C21BD30B882029F08150A0F012
:100AA0001092F100FBCFF801C7FC0AC0815050F052
:100AB00041914093F100FACF44914093F100319677
:100AC0008150D0F7020F131FDD2021F0A092E80023
:100AD000D12CDCCF8091E80085FD07C0A092E80012
:100AE000DD24D394209791F2F3CF209779F67720E5
:100AF00069F2A092E800CACF5D9A84E680937C05F3
:100B0000C7017CCFCF93DF93EC018091050288234E
:100B100031F083E00E94E8041816190634F081E0F1
:100B200090E09B838A8380E090E0DF91CF910895ED
:100B3000DC01FB0112962C91129784819581281774
:100B4000190641F491818081813A31F49D7F81E0E1
:100B5000913009F080E008958132E1F79B3029F46B
:100B600082811F968C9381E008959A3099F7828153
:100B700050968C93F8CFDC01FB0188E4808389E4F4
:100B8000818384E482831D969C911D979F709F5B57
:100B900093831D968D919C9124E0969587952A9537
:100BA000E1F78F708F5B848385E00895EF92FF9269
:100BB0000F931F93CF93DF93FB012081213889F599
:100BC0002381223271F5DC0112964C91248135810A
:100BD0004217130631F58C01FC01C385D485F12C35
:100BE000E12C209791F04C815D816A817B818E811F
:100BF000811180E80E949C028F3F980759F0E80E0F
:100C0000F91E0990D881C02DECCF81E0D8011F9644
:100C10008C93C701DF91CF911F910F91FF90EF90BF
:100C2000089590E080E0F6CFCF93DF93CDB7DEB7A5
:100C300069970FB6F894DEBF0FBECDBFFC01DB0194
:100C40008C918F5F8C939E012D5F3F4F8DE0D9017A
:100C50001D928A95E9F729E0298384E08A8391E04F
:100C60009D8383E08E832A8721E22B879C879D8743
:100C70009F8722E2288B27E02B8B25E02C8B8E8B05
:100C800020E430E0388F2F8B998F82818B8395857C
:100C90008685998B8A8B838180688D8B49E150E0B2
:100CA000BE016F5F7F4F80E00E949C0269960FB685
:100CB000F894DEBF0FBECDBFDF91CF910895CF93E3
:100CC000DF9380915A05811167C081E080934D05C3
:100CD00080934E0523E535E03093500520934F0572
:100CE00010925205109251052CE432E030934A05DF
:100CF00020934905109255051092540510925705FE
:100D000010925605809358058093590581EC809385
:100D100053050E94E002FC01818190914D05482F0E
:100D2000490F5527551F483051059CF5A281B381C5
:100D3000109709F529E435E033832283208120933D
:100D40004B0580934C0580914E05820F8083209146
:100D50004F05A22FB09150058A2F821B8917C8F426
:100D600081813D91C82FD0E0CD50DE4F38838F5F19
:100D70008183F2CFD90118962D913C9119972115B5
:100D80003105C1F729E435E019963C932E93189765
:100D9000D5CF81E080935A0589E495E0DF91CF912A
:100DA0000895DB01ED91FC9111970190F081E02D08
:100DB000682FCD01099420912405260F3327331F76
:100DC00021323105ECF42091F705FC0190E080E040
:100DD000243069F082E00895A09124052191AC01AE
:100DE0004C5F5A4FA40FB52FB11D2C930196861757
:100DF00098F380912405680F6093240580E008959E
:100E000081E008951092F70581E08093D605109255
:100E1000D10561E082E00E94C20361E083E00E94AC
:100E2000C203E9EBF0E080818E7F808380818D7F3B
:100E3000808388E48093B80085E48093BC000895A3
:100E4000CF93DF9391E0909303058823B9F0C0918D
:100E5000B800D091BA008091BC008A7B8093BC001E
:100E600060E082E00E94C20360E083E00E94C2036F
:100E70000E940207D093BA00C093B800DF91CF91CF
:100E80000895CF92DF92EF92FF920F931F93CF932B
:100E9000DF93D82FC62F613208F098C00E949104CA
:100EA0006B017C018091F70581116BC081E080931B
:100EB000F7058093D6059FEF9093D5051092D40542
:100EC0009C0F9093D3058093D2058091D205DD0FBE
:100ED000D82BD093D2058091D105813009F078C00C
:100EE0001092D1050E9491046B017C018091D20582
:100EF0008093BB008091F9059091FA05A091FB05C4
:100F0000B091FC05892B8A2B8B2BA1F00E949104B8
:100F10000091F9051091FA052091FB053091FC052F
:100F20006C197D098E099F090617170728073907CD
:100F300008F448C08091BC0083FDD8CF85EC809335
:100F4000BC000E9491046B017C018091F705813007
:100F500009F440C08091D4058C1710F4C091D405D9
:100F6000E1EBF5E0A7EDB5E080E08C1355C08C2FE8
:100F7000DF91CF911F910F91FF90EF90DF90CF9075
:100F800008958091F9059091FA05A091FB05B09123
:100F9000FC05892B8A2B8B2B09F484CF0E949104AA
:100FA0000091F9051091FA052091FB053091FC059F
:100FB0006C197D098E099F0906171707280739073D
:100FC00008F070CF8091F8050E942007C0E0CFCFD5
:100FD00085EEB5CF8091F9059091FA05A091FB05BA
:100FE000B091FC05892B8A2B8B2B09F4AECF0E9484
:100FF00091040091F9051091FA052091FB053091BB
:10100000FC056C197D098E099F090617170728072B
:10101000390708F09ACFD6CF91919D938F5FA5CFD6
:101020000895E091B0058091AF05E81730F4F0E045
:10103000E952FA4F808190E008958FEF9FEF089575
:101040009091B0058091AF052FEF3FEF981748F4CE
:10105000E92FF0E0E952FA4F208130E09F5F909352
:10106000B005C90108958091AF059091B005891B25
:10107000990B0895CF92DF92EF92FF920F931F93F7
:10108000CF93DF937C01CB018A0120914805222375
:1010900089F0EB016B01C40ED51ECC15DD0569F09E
:1010A0006991D701ED91FC910190F081E02DC7018C
:1010B0000995F3CF642F0E94DB06C801DF91CF9121
:1010C0001F910F91FF90EF90DF90CF900895CF93F5
:1010D000DF931F92CDB7DEB76983209148052223A5
:1010E000F9F02091AD05203258F021E030E0FC010C
:1010F0003383228390E080E00F90DF91CF910895B9
:101100008091AE05E82FF0E0ED51FB4F998190837F
:101110008F5F8093AE058093AD0581E090E0ECCFCA
:1011200061E0CE0101960E94DB06F7CFCF92DF92FD
:10113000EF92FF920F931F93CF93DF93D091AD0562
:1011400081E0D13208F09CC0C09147050E94910413
:101150006B017C018091F70581116CC082E0809366
:10116000F70581E08093D6058FEF8093D505109227
:10117000D405D093D305A3EEB4E0E1EBF5E080E035
:10118000D8138DC01092D2058091D205CC0FC82BF8
:10119000C093D2058091D105813009F084C01092AE
:1011A000D1050E9491046B017C018091D20580934E
:1011B000BB008091F9059091FA05A091FB05B091D3
:1011C000FC05892B8A2B8B2BA1F00E9491040091A6
:1011D000F9051091FA052091FB053091FC056C1979
:1011E0007D098E099F09061717072807390708F494
:1011F00042C08091BC0083FDD8CF85EC8093BC00B9
:101200000E9491046B017C018091F705823009F402
:101210004CC08091D5058F3F09F469C08091D505F8
:10122000803209F466C08091D505803309F463C02B
:1012300084E026C08091F9059091FA05A091FB0504
:10124000B091FC05892B8A2B8B2B09F483CF0E944C
:1012500091040091F9051091FA052091FB05309158
:10126000FC056C197D098E099F09061717072807C9
:10127000390708F06FCF8091F8050E94200785E0BC
:101280001092AE051092AD0510924805DF91CF91F6
:101290001F910F91FF90EF90DF90CF9008959D9157
:1012A00091938F5F6DCF85EEA9CF8091F9059091D5
:1012B000FA05A091FB05B091FC05892B8A2B8B2B9D
:1012C00009F4A2CF0E9491040091F9051091FA054A
:1012D0002091FB053091FC056C197D098E099F0951
:1012E000061717072807390708F08ECFC4CF80E00C
:1012F000C7CF82E0C5CF83E0C3CF1F93CF93DF93E7
:10130000EC01862F142F69817A819881906221E007
:1013100020934805909347051092AE051092AD05B5
:101320000E94D10669817A81812F0E94D10689812C
:101330009A81DF91CF911F910C949608CF93DF9300
:10134000EC0168838DE496E09A8389831092B0055E
:101350001092AF051092AE051092AD050E940207E3
:1013600088EB91E09093AC058093AB0589EB91E01D
:101370009093AA058093A9054FEF60E0CE010E94EB
:101380007D094FEF61E0CE010E947D0940E064E0FD
:10139000CE010E947D0940E065E0CE010E947D09FA
:1013A00040E06CE0CE010E947D0940E06DE0CE019E
:1013B000DF91CF910C947D0990E080E008958F92A9
:1013C0009F92AF92BF92CF92DF92EF92FF920F93D4
:1013D0001F93CF93DF936A014801E70191E0909357
:1013E0004805809347051092AE051092AD05E8813F
:1013F000F9810190F081E02DC70109958C0C9D1CAD
:10140000C814D90459F0E881F9810190F081E02DE8
:10141000D6016D916D01CE010995F2CFCE010E94EA
:10142000960890E080E0DF91CF911F910F91FF909F
:10143000EF90DF90CF90BF90AF909F908F900895E6
:10144000EF92FF920F931F93CF93DF9300D0CDB70E
:10145000DEB7FC01EF5BFE4F70813496E080F180D7
:101460004A83598302E010E020E030E0AE014F5F94
:101470005F4F872F0E94DF09892B51F08CEE0F9070
:101480000F90DF91CF911F910F91FF90EF900895F2
:1014900080E0F5CFEF92FF920F931F93CF93DF93EE
:1014A0001F92CDB7DEB7FC01EF5BFE4F7081349623
:1014B000E080F180498301E010E020E030E0AE01FF
:1014C0004F5F5F4F872F0E94DF09892B49F08CEE19
:1014D0000F90DF91CF911F910F91FF90EF900895A2
:1014E00080E0F6CF3F924F925F926F927F928F9201
:1014F0009F92AF92BF92CF92DF92EF92FF920F93A3
:101500001F93CF93DF93CDB7DEB72C970FB6F89428
:10151000DEBF0FBECDBF4B0130E020E0312CAE016D
:101520004F5F5F4F3A01FC01EB5BFE4FFE83ED83A3
:10153000AC014F5B5E4F58874F83B297FA87E987BC
:10154000405251095C874B872C015BED451A5EEFD9
:10155000550A5C01E8EDAE1AEEEFBE0AF401E20FA7
:10156000F31F0081002309F47CC031107AC06901A7
:101570004FEFC41AD40AD401AC0DBD1D6C910F3FBE
:1015800009F047C0690152E0C50ED11CD401AC0D71
:10159000BD1D8C916130C1F040F0623011F16330BB
:1015A00061F1ECEF3E2E9601D9CF690194E0C90EAE
:1015B000D11C238190E0982F8827820F911DEB8505
:1015C000FC8591838083EFCF690144E0C40ED11C78
:1015D000238190E0982F8827820F911DE985FA8555
:1015E000F0CF690144E0C40ED11C238190E0982F14
:1015F0008827820F911DF201E4CF690144E0C40EF7
:10160000D11C238190E0982F8827820F911DF5012E
:10161000D8CF053030F62E5F3F4FD401A20FB31F55
:10162000F301C02ED12CCF01861997098C159D0589
:101630001CF48D918193F7CFC20ED31EED81FE81F4
:10164000E080F18010E030E020E0A301EF81F88538
:1016500080810E94DF09892B09F4A5CF7CEE372E0B
:10166000A2CF832D2C960FB6F894DEBF0FBECDBF50
:10167000DF91CF911F910F91FF90EF90DF90CF906E
:10168000BF90AF909F908F907F906F905F904F90A2
:101690003F900895EF92FF920F931F93AB01FC01CF
:1016A000EB5BFE4FE080F1808F5B9E4F06E010E029
:1016B00020E030E060EBFC0180810E94DF09892B93
:1016C00031F08CEE1F910F91FF90EF90089580E024
:1016D000F9CFFC0101900020E9F73197AF01481BD9
:1016E000590BBC018DEF95E00C948205CF93DF93ED
:1016F000D0E0C0E0009719F00E94690BEC0188E887
:1017000092E00E94690B8C0F9D1FDF91CF9108958D
:10171000009711F00C94690B90E080E008958F928F
:101720009F92AF92BF92CF92DF92EF92FF920F9370
:101730001F93CF93DF93CDB7DEB7A1970FB6F89481
:10174000DEBF0FBECDBF6C01990FEE08FF08F7FE9C
:1017500041C06DE28DEF95E00E9425038C012227A8
:101760003327A9012C193D094E095F0919A2CE01A1
:1017700081967C019AE0892E912CA12CB12CCA0172
:10178000B901A50194010E945032605DF701629396
:101790007F01211531054105510589F790E080E071
:1017A000309719F0CF010E94690B800F911FA1960D
:1017B0000FB6F894DEBF0FBECDBFDF91CF911F9162
:1017C0000F91FF90EF90DF90CF90BF90AF909F90E0
:1017D0008F900895A701960119A28E010F5D1F4FEA
:1017E0008AE0C82ED12CE12CF12CCA01B901A70145
:1017F00096010E945032605DF80162938F012115BD
:1018000031054105510589F790E080E0309779F284
:10181000CF010E94690BCBCFCF93DF93EC01862FD2
:1018200069817A819881906221E0209348059093A4
:1018300047051092AE051092AD050E94D106898130
:101840009A810E949608888161E080620E94410727
:101850001092B0058093AF0589819A81DC01ED91EA
:10186000FC910284F385E02D0995DF91CF910895D5
:10187000CF93C62FC770683060F063E10E940C0CF4
:1018800090E002C095958795CA95E2F78170CF9157
:10189000089562E1F3CFFF920F931F93CF93DF93ED
:1018A000EC01162FF42E683008F4022F602FCE01C1
:1018B0000E940C0C177041E050E060E070E004C042
:1018C000440F551F661F771F1A95D2F7FF2051F05E
:1018D000482B602FCE01DF91CF911F910F91FF9088
:1018E0000C947D0940954823F4CF7F928F929F926C
:1018F000AF92BF92CF92DF92EF92FF920F931F931E
:10190000CF93DF93782E6A014801E70181E080934D
:101910004805709247051092AE051092AD05E8811A
:10192000F9810190F081E02DC7010995C7010E945E
:101930009608602F872D0E9441071092B005809372
:10194000AF058C0C9D1CC814D90459F0E881F981AD
:101950000284F385E02DCE010995F60181936F0194
:10196000F2CF90E080E0DF91CF911F910F91FF9037
:10197000EF90DF90CF90BF90AF909F908F907F902F
:1019800008952F923F924F925F926F927F928F9223
:101990009F92AF92BF92CF92DF92EF92FF920F93FE
:1019A0001F93CF93DF93CDB7DEB72F970FB6F89481
:1019B000DEBF0FBECDBF9C878B876D875F874E874D
:1019C0003901170128012F82388649865A8610E08E
:1019D00000E0EE24E394F12C0A151B0509F461C024
:1019E0009E01295F3F4FB201A1018E859F850E9414
:1019F00037014F81588569857A854F3F2FEF520710
:101A00006207720709F49CC0DB01CA018C549F4F26
:101A1000AF4FBF4FE6E0B695A79597958795EA95A6
:101A2000D1F7880F991F880F991F8C5A9D4F21E07D
:101A3000FC0180819181A281B381892B8A2B8B2B20
:101A400009F420E0FD85F2137BC01A012B0133E07D
:101A500056944794379427943A95D1F7DB01CA01FD
:101A600087709927AA27BB2726E022163104410454
:101A7000510468F4F301E20DF31D970102C0220F37
:101A8000331F8A95E2F7C9019081892B80831A015F
:101A90002B013FEF231A330A430A530A0F5F1F4FEC
:101AA0009BCFB12CF4012082318242825382B1104B
:101AB0002DC0B3018B859C850E944A0BB82E8111E5
:101AC00025C0EB85FC85EB5BFE4FE080F180EB856C
:101AD000FC85EF5BFE4F06E010E020E030E0AE0159
:101AE0004F5F5F4F60EB80810E94750C892B11F076
:101AF0009CEEB92EF301DE011196C30106963191D9
:101B00002D91321320C0E817F907C9F78B2D2F96B6
:101B10000FB6F894DEBF0FBECDBFDF91CF911F91FE
:101B20000F91FF90EF90DF90CF90BF90AF909F907C
:101B30008F907F906F905F904F903F902F9008957F
:101B40002EECB22EAFCF8EECB82EE0CFCF92DF923C
:101B5000EF92FF920F931F93CF93DF9300D000D0AB
:101B6000CDB7DEB76A01FC01EB5BFE4FE080F18090
:101B70008F5B9E4F04E010E020E030E0AE014F5F4D
:101B80005F4FFC0180810E94750C49815A81542766
:101B90004527542770E060E0762F652F542F4427A7
:101BA0002B81422B762F652F542F44272C81422BDB
:101BB000F6014083518362837383892B71F480E043
:101BC0000F900F900F900F90DF91CF911F910F9179
:101BD000FF90EF90DF90CF9008958CEEF1CFCF92F1
:101BE000DF92EF92FF920F931F93CF93DF9300D07A
:101BF000CDB7DEB76A01FC01EB5BFE4FE080F18000
:101C00008F5B9E4F02E010E020E030E0AE014F5FBE
:101C10005F4FFC0180810E94750C29813A81322737
:101C200023273227F60131832083892B61F480E05A
:101C30000F900F90DF91CF911F910F91FF90EF9038
:101C4000DF90CF9008958CEEF3CF0F931F93CF9337
:101C5000DF9300D0CDB7DEB7FC01E253FF4F208108
:101C600021502330B8F48C01AE014F5F5F4F6EE01E
:101C70000E94EF0D811107C0AE014F5F5F4F6CE016
:101C8000C8010E94EF0D0F900F90DF91CF911F912F
:101C90000F91089580E0F7CFEF92FF920F931F937B
:101CA000CF93DF9300D0CDB7DEB78C017A016330DC
:101CB000710509F449C090F46130710509F1623091
:101CC0007105E1F1F80181A992A9A3A9B4A9F701CD
:101CD00080839183A283B38380E049C0663071051D
:101CE00088F7AE014F5F5F4F64E60E94EF0D8111F0
:101CF0003EC0298180E0922F990FB0E0A0E0E7CFAD
:101D0000AE014F5F5F4F64E40E94EF0D81112FC061
:101D1000998120E0392F330FA90170E060E0232B77
:101D2000D1F0F7014083518362837383F80145AB9F
:101D300056AB67AB70AF91E096A319C0FC0181ADC3
:101D400092ADA3ADB4ADC3CFFC01FD96808191816E
:101D5000A281B381BCCFF80145A956A967A970AD8E
:101D6000F7014083518362837383F80116A20F90B9
:101D70000F90DF91CF911F910F91FF90EF900895F9
:101D80008F929F92AF92BF92CF92DF92EF92FF928B
:101D90000F931F93CF93DF9300D0CDB7DEB7962E6E
:101DA000D42E822EFC01EF5BFE4FC0805C012BEB3A
:101DB000A21A2EEFB20AF501E080F18001E010E0F6
:101DC00020E030E0AE014E5F5F4F8C2D0E94750C1D
:101DD000892BA9F42A812D2128292A83F501E08065
:101DE000F180298301E010E020E030E0AE014F5F98
:101DF0005F4F692D8C2D0E94DF09892B81F08CEEBD
:101E00000F900F90DF91CF911F910F91FF90EF9066
:101E1000DF90CF90BF90AF909F908F90089580E01B
:101E2000EFCFEF92FF920F931F93FC01EB5BFE4FFE
:101E3000E080F1808F5B9E4F01E010E020E030E019
:101E4000FC0180810E94750C892B31F08CEE1F9172
:101E50000F91FF90EF90089580E0F9CF9F92AF929D
:101E6000BF92CF92DF92EF92FF920F931F93CF9387
:101E7000DF931F92CDB7DEB77C015B016A01922E22
:101E8000198241E06FEF0E944A0A182F40E060E09B
:101E9000C7010E944A0A182B40E06FEFC7010E9459
:101EA0004A0A182B992031F0A5016BECC7010E945A
:101EB000110F182B002341F0AE014F5F5F4F6EEE04
:101EC000C7010E94110F182B41E06FEFC7010E945C
:101ED0004A0A182B41E060E0C7010E944A0A182B09
:101EE00040E06FEFC7010E944A0A99819F7EF60188
:101EF0009083812B0F90DF91CF911F910F91FF90D5
:101F0000EF90DF90CF90BF90AF909F900895EF92A9
:101F1000FF920F931F93CF93DF931F92CDB7DEB73E
:101F20007C0100E041E06BE0C7010E944A0A182FE3
:101F300040E06BE0C7010E944A0A182BAE014F5FD8
:101F40005F4F63E1C7010E94110F812B0F5F9981E1
:101F5000977061F0033061F0882321F30F90DF91D7
:101F6000CF911F910F91FF90EF9008950330B1F73B
:101F700084EFF4CF0F931F93CF93DF931F92CDB7CE
:101F8000DEB78A01AE014F5F5F4F613081F060E5DF
:101F90000E94110F811105C099819F5F990FF8016F
:101FA00090830F90DF91CF911F910F91089560E77B
:101FB000EFCFCF92DF92EF92FF921F93CF93DF93F9
:101FC0001F92CDB7DEB77C0140E063E80E944A0A69
:101FD000182F811117C0D12CC12CAE014F5F5F4F5C
:101FE00063E8C7010E94110F182F898181110AC06F
:101FF000111108C08FEFC81AD80A88ECC816D1048E
:1020000061F719EF41E063E8C7010E944A0A812B9A
:102010000F90DF91CF911F91FF90EF90DF90CF90C5
:1020200008950F931F93CF93DF931F92CDB7DEB721
:102030008B01FC01E253FF4F2081AE014F5F5F4FE8
:102040002430A1F463E10E94110F9981292F277098
:10205000987109F08AEF243089F491E0F8019083B7
:102060000F90DF91CF911F910F91089564E10E942D
:10207000110F8111F5CF998190FDEFCFF8011082FA
:10208000EFCFEF92FF920F931F93CF93DF931F92A7
:10209000CDB7DEB77C01198210E000E0BE016F5FB2
:1020A0007F4FC7010E94111081110CC0998191309E
:1020B00049F00F5F1F4F083C110519F00E940F01F6
:1020C000EDCF89EF0F90DF91CF911F910F91FF908E
:1020D000EF900895CF93DF93EC01462F416060E0CD
:1020E0000E944A0A811111C0CE010E944110811143
:1020F0000CC0CE010E94870F811107C040E060E054
:10210000CE01DF91CF910C944A0ADF91CF910895CF
:10211000CF92DF92EF92FF920F931F93CF93DF93B3
:102120001F92CDB7DEB78C01FC01F08841E060E87A
:102130000E944A0A41E06FEFC8010E944A0A40E04B
:1021400060E0C8010E944A0AF801E95DFE4F408143
:1021500061E9C8010E944A0A41E060E0C8010E94AA
:102160004A0A40E06FEFC8010E944A0A40E060E876
:10217000C8010E944A0AF1E0FF16F1F1FF1630F0A3
:1021800093E0F91609F44AC088EF0CC041E060E022
:10219000C8010E944A0A91E09983C12CD12C760192
:1021A000882389F00F90DF91CF911F910F91FF90BD
:1021B000EF90DF90CF900895AE014F5F5F4F60E0EA
:1021C000C8010E94110FEFEFCE1ADE0AEE0AFE0AD6
:1021D000998190FF0AC0811108C0F8ECCF16D10494
:1021E000E104F10449F789EFDDCF98ECC916D10479
:1021F000E104F104B9F6F7CF811103C0C8010E94D0
:10220000250E42E060E0C8010E944A0A8111CACF4F
:10221000F801E15EFE4F94E09083C4CF811103C0CA
:10222000C8010E94250E44E0EDCFCF92DF92EF92DD
:10223000FF920F931F93CF93DF9300D000D000D075
:10224000CDB7DEB7E091F107F091F20783E0808B24
:102250001092A906C090F107D090F207AE014B5F33
:102260005F4F68EFC6010E94EF0D811135C02D81CF
:102270003E8168EC70E080E02115310521F0A8EC8A
:10228000B0E00E947232F601EF5BFE4F908134960F
:10229000E080F1806C837B838A83198204E010E004
:1022A00020E030E0AE014F5F5F4F64E0892F0E9475
:1022B000DF09892B39F588EC90E0A0E0B0E0F60169
:1022C000868B978BA08FB18F1092A9068091F10712
:1022D0009091F2070E9488108093A90681E0909166
:1022E000A906911180E026960FB6F894DEBF0FBEC6
:1022F000CDBFDF91CF911F910F91FF90EF90DF90B5
:10230000CF9008958CEEE8CF2F923F924F925F923C
:102310006F927F928F929F92AF92BF92CF92DF92F5
:10232000EF92FF920F931F93CF93DF93CDB7DEB75A
:10233000EC970FB6F894DEBF0FBECDBF6C015B010A
:10234000DC0150961C920E94881081111CC0C601AD
:102350000E944110811117C083E0F601E15EFE4F3B
:102360008083B696E080F1800CE010E020E030E061
:10237000AE01465E5F4F64E1349780810E94750C28
:10238000892BD1F08CEEEC960FB6F894DEBF0FBE21
:10239000CDBFDF91CF911F910F91FF90EF90DF9014
:1023A000CF90BF90AF909F908F907F906F905F90F5
:1023B0004F903F902F900895F501168AD501108215
:1023C0001182128213826CA170E0762F66272DA1F4
:1023D000620F711D1482158216821782E9A1F0E046
:1023E000FE2FEE27FF0F2F01712C612C1C964D92B2
:1023F0005D926D927C921F978BA190E0982F882719
:10240000990F8C0130E020E050960D931D932D9391
:102410003C9353970C8D10E0102F00272D8D7801E1
:10242000E20EF11CFCAEEBAE5596FC92EE92549788
:102430009A8CD601A75CBE4F2D913C9111975B976A
:102440008C90283E03E03007E9F1629FC001639F52
:10245000900D729F900D11248C509E4F68EE73E08A
:102460000E949132D6015D96ED90FD900D911C91E8
:1024700090975A962C91222329F12BAD3CAD2E9D9D
:10248000A0012F9D500D3E9D500D1124452F552725
:10249000E417F50741F460EE7AE8882009F4E3C018
:1024A00068EB72E212C09F01DB010E94723283016D
:1024B0007F01E41AF50A01091109A80197010E9498
:1024C0005032B901882009F4CEC0CB01969587958A
:1024D00096958795D50119969C938E93189762953A
:1024E000660F660F607C57966C931FA61EA6892DFB
:1024F00090E07C0173E0F594E7947A95E1F7FAAE09
:10250000E9AE09AD0F70902E09F4B2C089AD8D709F
:1025100011E018AB853029F084EF800F843008F08B
:1025200018AA41E06FEFC6010E944A0A811107C054
:10253000AE01425D5F4F66EBC6010E94EF0D9EA5A6
:1025400020E0392F330F790110E000E0E9AAFAAA60
:102550000BAB1CAB811105C040E06FEFC6010E94C0
:102560004A0AF601EE5CFE4FE9A8FAA80BA91CA9DD
:10257000E082F18202831383811178C1D60195969E
:102580008C909597882009F47FC0F501E484F58448
:10259000068517855A968C9120E030E0A9018823A2
:1025A00099F0A489B589F601258D368D478D50A106
:1025B0000E9445329B01AC0120583F4F4F4F5F4F67
:1025C000232F342F452F55272E0D3F1D401F511F00
:1025D000A8EEB3E00E94453270588F4F9F4FBC0168
:1025E00088279927F601E65DFE4F672B682B692B3C
:1025F00009F041C08EEA97E8AFE8B2E080839183AA
:10260000A283B3831EEAE12E17E8F12E0FE812E051
:10261000EDAAFEAA0FAB18AFD5011B961C921E9215
:102620001A97AE01465D5F4F70E060E0C6010E9400
:102630004C0E4AA55BA56CA57DA54115510561050C
:10264000710559F0FF24F3940DA91EA92FA938ADE7
:10265000401751076207730708F0F12C8823A9F08F
:10266000312C212C07C1F50171876087178A3DCF76
:1026700001E008AB56CF10821182128213821DAA8C
:102680001EAA1FAA18AEC8CFF12CD60197963C906F
:10269000332009F4C5C0AE014A5D5F4F62E070E0CF
:1026A000C6010E944C0E4EA15FA168A579A54115F7
:1026B00051056105710559F0EE24E39409A91AA9A1
:1026C0002BA93CA9401751076207730708F0E12CBA
:1026D000212C90E0811132C0D60198962C902220B6
:1026E00009F4A4C00BAD1CAD0115110509F49AC085
:1026F000962D852D742D6627980150E040E00E94AC
:10270000503229013A01AE014F5F5F4F63E070E044
:10271000C6010E944C0E49815A816B817C81411512
:1027200051056105710531F091E0441655066606C4
:10273000770608F090E0882309F479C0D5011B964C
:102740001C921E921A9780E0811002C0FF24F3941D
:10275000F60136A1F3A6F4E09F1609F4A8C021E023
:10276000311120E0D6019C962C93311002C0EE244A
:10277000E394F601E5A6211001C091E0D6019E96F2
:102780009C93F501808F9601265B3F4F99E1F901FB
:10279000DE01119601900D929A95E1F7D5011896F8
:1027A000ED91FC91199757969C9157971A966D91B8
:1027B0007C911B971C96ED90FD900D911C911F979D
:1027C00050964D905D906D907C90539754964D919E
:1027D0005C91559714968D909D90AD90BC901797F5
:1027E0008D829E82AF82B886FA87E9877C876B8765
:1027F000ED86FE860F87188B498A5A8A6B8A7C8AF7
:102800005E8B4D8B988F898F89E1FE013196D901BE
:1028100001900D928A95E1F7C6010E94870FB3CD12
:10282000E12C5ACF412C512C32016DCF90E018A9E8
:102830008FEF113009F488CF890D8330F0F026E056
:102840009216F9F039E09316E1F089AD8D70883079
:10285000B1F041E0E41699F054E09516F9F09130AA
:10286000C1F0F416C1F09F2DEF2C68CF312C812CD4
:10287000212CF12C90E0E12C61CF85E065CF83E045
:1028800063CF84E0811064CFF60136A121E023A755
:1028900066CF82E0F7CFE92E81E0F4CF82E08110AD
:1028A00057CF81E0D6019B968C93E12C82E021E00A
:1028B00059CFAF92BF92DF92EF92FF920F931F9387
:1028C000CF93DF93CDB7DEB769970FB6F894DEBF2D
:1028D0000FBECDBF8C015B017C0183EEE81A8EEF49
:1028E000F80AF701D08040EC61E0C8010E944A0A72
:1028F000811126C0BE016F5F7F4FC8010E94841105
:1029000081111EC041E06FEFC8010E944A0A811187
:1029100017C0A50166EBC8010E94EF0D811110C020
:1029200040E06FEFC8010E944A0A811109C04D2D95
:1029300061E0C8010E944A0A811102C0F701D082F9
:1029400069960FB6F894DEBF0FBECDBFDF91CF9171
:102950001F910F91FF90EF90DF90BF90AF9008957F
:102960000F931F93CF93DF931F92CDB7DEB78B01E9
:102970001982AE014F5F5F4F61E00E94110F81111C
:1029800016C0998194FB332730F9F801308393FB0B
:10299000332730F9328392FB332730F9318396FBAA
:1029A000222720F92383991F9927991F94830F9039
:1029B000DF91CF911F910F9108952F923F924F92E7
:1029C0005F926F927F928F929F92AF92BF92CF92BF
:1029D000DF92EF92FF921F93CF93DF93CDB7DEB7D5
:1029E0002B970FB6F894DEBF0FBECDBF6C011A0156
:1029F0001B861F821E82623009F06EC0AE01465FE8
:102A00005F4F60E00E94BA0F182F811108C0AE011D
:102A1000455F5F4F66E4C6010E94110F182FAA851B
:102A2000B0E020E03FE24AE350E00E9445322B0153
:102A30003C0124EF420E21E0521E611C711CCB842C
:102A4000D12CF12CE12C8FEFC81AD80AE80AF80A29
:102A500098EE892E93E0992EA12CB12CC301B201DE
:102A6000A50194010E945032CA01B901A701960143
:102A70000E9481326B017C01C301B20120ED37E07D
:102A800040E050E00E945032C701B601620F731F50
:102A9000841F951FA50194010E945032F1012083EB
:102AA000318342835383812F2B960FB6F894DEBF78
:102AB0000FBECDBFDF91CF911F91FF90EF90DF90C0
:102AC000CF90BF90AF909F908F907F906F905F90CE
:102AD0004F903F902F900895633009F043C0AE01AE
:102AE000465F5F4F60E00E94BA0F182F20E030E091
:102AF000A9018111D3CFAE01465F5F4F60E0C601EF
:102B00000E94BA0F182F811108C0AE014A5F5F4FB3
:102B100061E5C6010E94EF0D182FEE81FF81AA85A5
:102B2000B0E020E03FE24AE350E00E9445322B0152
:102B30003C0124EF420E21E0521E611C711C6F010A
:102B4000DD24F12CE12C04C0CC0CDD1CEE1CFF1CA0
:102B5000FA95D2F78FEFC81AD80AE80AF80AEE24D5
:102B6000FF2476CFBE016F5F7F4F0E94B0148C812F
:102B7000882351F1AE01465F5F4F60E0C6010E94BD
:102B8000BA0F182FF12CE12C81111BC0AE014A5F46
:102B90005F4F61E5C6010E94EF0D182F2E813F8126
:102BA000C9019927B0E0A0E004C0880F991FAA1FAF
:102BB000BB1F3A95D2F70196A11DB11D7C011123CF
:102BC00029F0D12CC12C25C0F12CE12CAE01465F9F
:102BD0005F4F61E0C6010E94BA0F182F8111F1CF3B
:102BE000AE01485F5F4F61E7C6010E94EF0D182FED
:102BF00028853985C9019927B0E0A0E004C0880F75
:102C0000991FAA1FBB1F3A95D2F70196A11DB11DAE
:102C10006C01AA85B0E020E03FE24AE350E00E9468
:102C200045322B013C01E4EF4E0EE1E05E1E611CDB
:102C3000711C88EE882E83E0982EA12CB12CC30144
:102C4000B201A50194010E945032D601AE19BF090C
:102C50000E9445320FCF4F925F926F927F92BF9248
:102C6000CF92DF92EF92FF920F931F93CF93DF9358
:102C700000D000D0CDB7DEB78A01AE014F5F5F4F05
:102C80000E94DD14B82E81112AC069817A818B815E
:102C90009C8128EE422E23E0522E612C712CA30140
:102CA00092010E94503269017A019B01AC01AFEFA1
:102CB000BFEF0E9445326C507E4F8F4F9F4FA30154
:102CC00092010E9450327601DD24CC24C20ED31E24
:102CD000E41EF51EF801C082D182E282F3828B2DC0
:102CE0000F900F900F900F90DF91CF911F910F9148
:102CF000FF90EF90DF90CF90BF907F906F905F90AC
:102D00004F9008955F926F927F928F929F92AF92B1
:102D1000BF92CF92DF92EF92FF920F931F93CF93C8
:102D2000DF93CDB7DEB761970FB6F894DEBF0FBE65
:102D3000CDBF7C018B01FC018089FB018083AE014A
:102D40004A5F5F4F68EFC7010E94EF0D582E811157
:102D50003AC1AE014F5F5F4F64E0C7010E94A60D0C
:102D6000582E811130C12E813F812115310569F026
:102D700050E040E069817A818B819C810E945032D1
:102D8000F8012683378340875187F8018681978130
:102D9000A085B185F701868B978BA08FB18FF80145
:102DA0001286AE014F5F5F4F60E2C7010E94EF0DD8
:102DB000582E811108C189819A81009709F01AC1A2
:102DC000F701858D968DA78DB0A1F801858796872F
:102DD000A787B08BF701128EAE014F5F5F4F68E29D
:102DE000C7010E94EF0D582E8111EDC089819A8193
:102DF0009F708115F8E09F0708F090514AEF489FB7
:102E00009001499F300D1124C901330FAA0BBB0B50
:102E1000F801818B928BA38BB48B5801F1E2AF0E3A
:102E2000B11C470125E2820E911C380185E1680E34
:102E3000711CD12CC12CA501B601C7010E944C0EFA
:102E4000582E8111C0C0F40181914F01F30181938B
:102E50003F01FFEFCF1ADF0A24E0A20EB11C86E08B
:102E6000C816D10441F7AE014F5F5F4F61E0C70163
:102E70000E94110F582E8111A6C08981F701E35ECF
:102E8000FE4F808387FFCAC081E0F80181AFF8015F
:102E900081ADF701E75BFF4F808380ED97E0A0E015
:102EA000B0E08A879B87AC87BD871E821F82188609
:102EB000198686E39BE0A0E0B0E0F801828393836B
:102EC000A483B583BE016F5F7F4FC7010E94B0141A
:102ED000582E811178C08981811107C08A818111A2
:102EE00004C08B81882309F43EC0AE01465F5F4F6A
:102EF00062E0C7010E94DD148111C1C0898188236D
:102F0000A9F08A859B85AC85BD85825B9D4FAF4FBF
:102F1000BF4FF8014281538164817581840F951FF1
:102F2000A61FB71F82839383A483B5838B818823D5
:102F300009F477C08A859B85AC85BD858E549D4FED
:102F4000AF4FBF4F880F991FAA1FBB1FF8014281C7
:102F5000538164817581840F951FA61FB71F8283DB
:102F60009383A483B5838C81811168C08D8188236C
:102F700001F1AE01425F5F4F64E0C7010E94DD14C2
:102F80008E849F84A888B988F6E28F0EF2E09F1E97
:102F9000A11CB11CF8014281538164817581480DE7
:102FA000591D6A1D7B1D4283538364837583811180
:102FB00066C0F80182819381A481B581F701828B7B
:102FC000938BA48BB58B852D61960FB6F894DEBFDD
:102FD0000FBECDBFDF91CF911F910F91FF90EF906A
:102FE000DF90CF90BF90AF909F908F907F906F9029
:102FF0005F90089533E0880F991F3A95E1F7B0E0AC
:10300000A0E0F80185879687A787B08BF701858FA9
:10301000968FA78FB0A381E0828FDECEF80111AE2C
:1030200036CF8A81882309F49ECF8A859B85AC851B
:10303000BD858C569D4FAF4FBF4F88CFAE014A5FC5
:103040005F4F63E0C7010E94DD148E809F80A884DB
:10305000B984F4E98F0EF2E09F1EA11CB11CF801A7
:103060004281538164817581480D591D6A1D7B1D04
:103070004283538364837583882309F477CF582E62
:10308000A2CF2F923F924F925F926F927F928F9238
:103090009F92AF92BF92CF92DF92EF92FF920F93E7
:1030A0001F93CF93DF93CDB7DEB769970FB6F89430
:1030B000DEBF0FBECDBF00ED17E020E030E00B8794
:1030C0001C872D873E871F86188A198A1A8A4032E4
:1030D0002EE4520761057105E0F45CEFB52E8B2DEF
:1030E00069960FB6F894DEBF0FBECDBFDF91CF91CA
:1030F0001F910F91FF90EF90DF90CF90BF90AF9016
:103100009F908F907F906F905F904F903F902F9007
:1031100008954E8B5F8B688F798F8C01BE016A5F3B
:103120007F4F0E94B014B82E8111D9CFCE88DF888E
:10313000E88CF98C88EEC81A88E0D80AE108F10812
:103140008E81811106C08F81811103C088858823FB
:10315000C1F1AE01455F5F4F62E0C8010E94DD141E
:1031600081110AC18E81882391F08B859C85AD8564
:10317000BE85825B9D4FAF4FBF4F8C159D05AE0541
:10318000BF0508F0AACFC81AD90AEA0AFB0A88853F
:10319000882309F471C08B859C85AD85BE858E54CE
:1031A0009D4FAF4FBF4F880F991FAA1FBB1F8C1594
:1031B0009D05AE05BF0508F090CFC81AD90AEA0AE6
:1031C000FB0A89858823D9F0AE01415F5F4F63E038
:1031D000C8010E94DD144F85588969897A894C5647
:1031E0005D4F6F4F7F4F4C155D056E057F0508F0F5
:1031F00074CF8111C1C0C41AD50AE60AF70A8A85BC
:10320000882309F46CCFBE016F5F7F4FC8010E9415
:10321000B0148C818823E9F1AE014B5E5F4F60E012
:10322000C8010E94BA0FB82E81111CC0AE014D5EBC
:103230005F4F61E5C8010E94EF0DB82E8B899C8914
:103240001C013324512C412C04C0220C331C441C7F
:10325000551C9A95D2F79FEF291A390A490A590A3B
:10326000BB20C9F08E899F89A88DB98DF801828B0A
:10327000938BA48BB58B33CF8F81882309F4A1CF97
:103280008B859C85AD85BE858C569D4FAF4FBF4FBE
:103290008ECF312C212CAE014B5E5F4F61E0C80117
:1032A0000E94BA0FB82E8111DDCFA6E2CA1AA2E0A1
:1032B000DA0AE108F108AD89B0E020E03FE24AE334
:1032C00050E00E9445324B015C01B4EF8B0EB1E03F
:1032D0009B1EA11CB11CA8EEB3E0A70196010E94A1
:1032E00045322B013C01C501B40120ED37E040E03F
:1032F00050E00E945032420E531E641E751EC501DE
:10330000B40128EE33E040E050E00E945032C301A7
:10331000B2010E945032220E331E21143104E1F01A
:103320004101B12CA12CE1E08E1A9108A108B1084D
:1033300090E080E0B501A4014427452B462B472BA4
:1033400031F0B694A794979487940196F3CF982F71
:1033500088271C01280C391CA10161E7C8010E94C3
:10336000200AB82E81117ECFF801E153FF4FC082B1
:10337000D182E282F38276CFB82EB1CE7F928F9245
:103380009F92AF92BF92CF92DF92EF92FF920F93F4
:103390001F93CF93DF931F92CDB7DEB77C015B0104
:1033A0006A01722E4C0183EE881A8EEF980AF4019E
:1033B0001081198241E061E0C7010E944A0A81112F
:1033C0004AC060E4C7010E946A10811144C0F1E064
:1033D0007F121AC000E021E0AE014F5F5F4FB501E0
:1033E000C7010E942E0F882389F00F90DF91CF91A3
:1033F0001F910F91FF90EF90DF90CF90BF90AF9013
:103400009F908F907F900895F501108242E061E0D7
:10341000C7010E944A0A811124C060E0C7010E94CE
:103420006A1081111EC0F1E07F1218C001E020E097
:10343000A601BE016F5F7F4FC7010E942E0F811151
:10344000D4CF412F61E0C7010E944A0A8111CDCF3C
:10345000F4011083CACFF5011082C7CFF6011082A4
:10346000F0CFF601F9CF2F923F924F925F926F9279
:103470007F928F929F92AF92BF92CF92DF92EF9204
:10348000FF920F931F93CF93DF93CDB7DEB7AC9727
:103490000FB6F894DEBF0FBECDBF1C017FA36EA395
:1034A00059A748A71F82188619861A861B861C866C
:1034B0001D861E86198A1A8AFC01E85DFE4F20814E
:1034C0003181398F288FAC014F5E5E4F5B8F4A8F01
:1034D000DA011C922C01BEEE4B1ABEEF5B0AF20120
:1034E00010823C01FDEE6F1AFEEF7F0AD3011C92A1
:1034F000FC01EC5EFE4F10823196108231961082F4
:1035000041E06FEF0E944A0A8B8B81111DC140E0A0
:103510006FE4C1010E944A0A8B8B811115C14CE2F4
:103520006EE4C1010E944A0A8B8B81110DC140E0FB
:103530006FEFC1010E944A0A8B8B811105C144EBD8
:1035400066EBC1010E944A0A8B8B8111FDC040E0ED
:1035500060E8C1010E944A0A8B8B8111F5C020E00E
:10356000AE014E5E5F4FBE016F5E7F4FC1010E9494
:10357000BE198B8B8111E8C01F82188619861A86A6
:10358000F101E95EFE4FFD8FEC8F9E01295F3F4FF9
:103590004901A3E0AA2EB12CC12CD12CE12CF12C95
:1035A00087012A8D3B8DAF0160E0C1010E94C10CF3
:1035B0008B8B8111C9C04F81588569857A854C8B69
:1035C0005D8B6E8B7F8BBE01615F7F4FC1010E945F
:1035D00059148B8B8111B8C08F859889688D798D2E
:1035E0006817790708F0D3C0AA8DBB8D1C92F20131
:1035F0001082D3011C92329610823196108231963D
:1036000010828C899D89AE89BF898C549F4FAF4FA2
:10361000BF4FE6E0B695A79597958795EA95D1F7C0
:10362000880F991F880F991F8C5A9D4FFC0180812C
:103630009181A281B381892B8A2B8B2B91F42C89C8
:103640003D894E895F892C3231054105510548F489
:103650002F5F3F4F4F4F5F4F2C8B3D8B4E8B5F8BC0
:10366000D0CFAE01495F5F4F4A0173E0A72EB12C66
:10367000C12CD12CEC88FD880E891F892A8D3B8DA9
:103680004C8D5D8D61E0C1010E94C10C811159C159
:103690006F81788589859A856C8B7D8B8E8B9F8BCE
:1036A000BE01615F7F4FC1010E945914811149C160
:1036B0008F859889A88DB98D11E063E0462E512C35
:1036C000612C712CA817B90720F010E0412C512C67
:1036D0003201C12CD12C7601C39460C0D501C40144
:1036E0000196A11DB11D8C8B9D8BAE8BBF8B86E08F
:1036F000EAA5FBA5ACA5B02F01900D928A95E1F744
:103700004E8C5F8C68A079A04AA35BA36CA37DA3B9
:103710006FC04E8C5F8C68A079A0AEA1BFA14D9206
:103720005D926D927C921397E8A5F9A51083F10143
:10373000EC5FFE4F81E0808332978C918083A8A557
:10374000B9A58C91319680838B89AC960FB6F8948D
:10375000DEBF0FBECDBFDF91CF911F910F91FF90C4
:10376000EF90DF90CF90BF90AF909F908F907F9021
:103770006F905F904F903F902F900895BEECBB8B61
:10378000E3CFEEECEB8BE0CFFEECFB8BDDCF10E07C
:10379000412C512C3201C12CD12C76018F85988976
:1037A000288D398D8217930708F0B7CF46E0EA8D50
:1037B000FB8D9E012F5F3F4FD90101900D924A95DD
:1037C000E1F7E88DF98D8E1B9F0BAC0170E060E096
:1037D0004AA35BA36CA37DA353E0452E512C612C1F
:1037E000712CB1016F5E7E4F7BA76AA72CA7032FB8
:1037F0009E01255F3F4F4C895D896E897F898C8D45
:103800009D8D0E9437018B849C84AD84BE847FEFA4
:1038100087169706A706B70609F4B0CFD301C201F1
:103820000196A11DB11D8E8F9F8FA8A3B9A3D501AD
:10383000C4018C549F4FAF4FBF4F36E0B695A7954C
:10384000979587953A95D1F7880F991F880F991FFB
:103850008C5A9D4F11E0FC0180819181A281B3813E
:10386000892B8A2B8B2B09F410E0812F90E0B0E09C
:10387000A0E08C159D05AE05BF0509F082CFD501EE
:10388000C40123E0B695A795979587952A95D1F71A
:10389000B501A40147705527662777278630910523
:1038A000A105B10508F070CFEA8DFB8DE80FF91F77
:1038B00021E030E001C0220F4A95EAF78081822B97
:1038C00080836A8D7B8DC1010E944A0B811139C0B2
:1038D000BE01615F7F4FC1010E945914811131C047
:1038E0008F859889288D398DAC01421B530B821727
:1038F000930711F450E040E070E060E0A88DB98DCE
:10390000A817B90708F0EACE8AA19BA1ACA1BDA176
:1039100084179507A607B70708F0FBCEBE016F5FB7
:103920007F4FC1010E944A0B96E0FE013196D10102
:10393000AF5EBE4F01900D929A95E1F7882309F48E
:10394000ECCE8B8B01CF8F929F92AF92BF92CF9292
:10395000DF92EF92FF920F931F93CF93DF93CDB738
:10396000DEB7ADB6BEB68091A8062DB73EB7281B10
:1039700031090FB6F8943EBF0FBE2DBF8DB79EB76D
:1039800001966C01E0907706F12C8091730690917E
:103990007406D601FC019F01281B390B2E153F052B
:1039A0001CF421912D93F7CF80917806882359F14B
:1039B00080916F069091700628E097FD09C068E637
:1039C00071E00E94A5326DE270E00E94A532262FC0
:1039D000809171069091720668E097FD08C068E6D4
:1039E00071E00E94A5326DE270E00E94A532F601FE
:1039F000EE0DFF1D90E1699FB0011124262B20835D
:103A0000F70131967F0186010E0D1F1D20917D0665
:103A100030917E0640917B0650917C06609159065C
:103A200070915A068091790681700E94BA01E80E61
:103A3000F91E86010E0D1F1D209181063091820610
:103A400040917F065091800660915B0670915C0604
:103A500080917906869581700E94BA01E80EF91E60
:103A600086010E0D1F1D209185063091860640911E
:103A700083065091840660915D0670915E06809188
:103A8000790682FB882780F90E94BA01E80EF91EA8
:103A900086010E0D1F1D2091890630918A064091E6
:103AA00087065091880660915F067091600680914C
:103AB000790683FB882780F90E94BA01E80EF91E77
:103AC00086010E0D1F1D20918D0630918E064091AE
:103AD0008B0650918C066091610670916206809110
:103AE0007906829581700E94BA01E80EF91E86015E
:103AF0000E0D1F1D209191063091920640918F0668
:103B000050919006609163067091640680917906E9
:103B100085FB882780F90E94BA01E80EF91E86010C
:103B20000E0D1F1D2091950630919606409193062B
:103B300050919406609167067091680680917A06AC
:103B400081700E94BA01E80EF91E86010E0D1F1D3C
:103B50002091990630919A064091970650919806C7
:103B6000609165067091660680917A0686958170EF
:103B70000E94BA01E80EF91E86010E0D1F1D20914C
:103B80009D0630919E0640919B0650919C06609147
:103B9000690670916A0680917A0682FB882780F90F
:103BA0000E94BA01E80EF91E86010E0D1F1D20911C
:103BB000A1063091A20640919F065091A006609107
:103BC0006B0670916C0680917A0683FB882780F9DA
:103BD0000E94BA018E0D9F1D8601080F191F2091AA
:103BE000A5063091A6064091A3065091A4066091C7
:103BF0006D0670916E0680917A06829581700E94A2
:103C0000BA010E945F064C014091A8068091A70668
:103C100050E07A01FFEFEF1AFF0A2DB73EB72E19D9
:103C20003F090FB6F8943EBF0FBE2DBF0DB71EB7AC
:103C30000F5F1F4FEDB7FEB78183B601C801019634
:103C40000E94E433F4018381A701B80180640E94DB
:103C5000E8040FB6F894BEBE0FBEADBEDF91CF91A3
:103C60001F910F91FF90EF90DF90CF90BF90AF909A
:103C70009F908F90089590917606891708F5E82F08
:103C8000E695E695E6952091730630917406E20F6D
:103C9000F32FF11D282F277081E090E0A0E0B0E025
:103CA00004C0880F991FAA1FBB1F2A95D2F78095C1
:103CB0009081892380838091750681110C94A31CC7
:103CC000089590917606891700F5E82FE695E69518
:103CD000E6952091730630917406E20FF32FF11DE3
:103CE000282F277081E090E0A0E0B0E004C0880FAA
:103CF000991FAA1FBB1F2A95D2F72081822B808390
:103D00008091750681110C94A31C08958F929F9247
:103D1000AF92BF92CF92DF92EF92FF920F931F93D9
:103D2000CF93DF936093E2048C010E551B4FF80193
:103D300070819C01220F331F220F331F67133CC079
:103D40006FB7F894C0906305D0906405E090650566
:103D5000F09066056FBF2E553C4FF5E0CF0ED11C9D
:103D6000E11CF11CF901C082D182E282F382F801E8
:103D70002081BC016E597C4F6B01FB013081231700
:103D800071F07A01EC01222309F463C0009781F5F8
:103D900081E080939905F8018081F6018083DF91AD
:103DA000CF911F910F91FF90EF90DF90CF90BF9038
:103DB000AF909F908F9008956FB7F894C09063056F
:103DC000D0906405E0906505F09066056FBF2E55B4
:103DD0003C4FF90180809180A280B3808C149D04B7
:103DE000AE04BF0420F62091E204F8012083BFCF87
:103DF0008C309105E1F00E94611E83EC90E00E94FE
:103E00003B03C7010E948F0B8BE892E00E94880B56
:103E1000CE010E948F0B8FE892E00E94880BCE01AA
:103E20000E948F0B88E892E00E94690BB4CF8091CA
:103E30009905882351F081E08093940581E090E01A
:103E40009093930580939205A6CF8CE00E94611E0B
:103E5000A2CF009719F4109299059DCF8C3091054F
:103E600069F480919905882341F081E0809394055D
:103E700010929305109292058ECF8CE00E943B1E0B
:103E80008ACF85ED8093BC008091F9059091FA0569
:103E9000A091FB05B091FC050796A11DB11D23E083
:103EA000B695A795979587952A95D1F72091BC004F
:103EB00024FD03C01092F70508954091F905509133
:103EC000FA056091FB057091FC05452B462B472BAD
:103ED00069F30097A105B10541F02AE22A95F1F7AF
:103EE00000C00197A109B109E1CF8091F8050C94B8
:103EF00020079F92AF92BF92CF92DF92EF92FF92F4
:103F00000F931F93CF93DF93CDB7DEB7A0970FB674
:103F1000F894DEBF0FBECDBF6C012FEDC20ED11CD9
:103F2000F601A080F7E0F12CAF1609F4EEC0B62E32
:103F30008C0141E060E80E944A0AF82E41E06FEFF0
:103F4000C8010E944A0AF82A40E060E0C8010E94C5
:103F50004A0AF82A46E06FEFC8010E944A0AF82A86
:103F6000AE01425E5F4F63E8C8010E94110FF82A5C
:103F70004E8D446063E8C8010E944A0AF82A47E06F
:103F80006FEFC8010E944A0AF82A41E061E8C801BF
:103F90000E944A0AF82A0E940F01F82A41E060E8CC
:103FA000C8010E944A0AF82A21E0B212C1C0A0FC4E
:103FB00002C24BE664E9C8010E944A0AE82EC80121
:103FC0000E94D90F8E29F82AAE01465E5F4F60E944
:103FD000C8010E94A60DF82A8A8D9B8DAC8DBD8DDF
:103FE000992EE89497F897FBEE24E0F844E264E910
:103FF000C8010E944A0AF82AC8010E94D90FF82A6B
:10400000AE01465E5F4F60E9C8010E94A60DF82A26
:104010008A8D9B8D2C8D3D8D3C8B2D8B9E8B8F8B1C
:1040200045E264E9C8010E944A0AF82AC8010E94D0
:10403000D90FF82AAE01465E5F4F60E9C8010E94C1
:10404000A60DF82A8C8D9D8D988F898F40E061E8B0
:10405000C8010E944A0AF82A46E06FEFC8010E9490
:104060004A0AF82AAE01425E5F4F63E8C8010E9427
:10407000110FF82A4E8D4B7F63E8C8010E944A0A4F
:10408000F82A41E06FEFC8010E944A0AF82A41E08D
:1040900060E0C8010E944A0AF82A40E06FEFC801B8
:1040A0000E944A0AF82A40E060E8C8010E944A0AD1
:1040B000F82A59F5F1E0BF1699F0A1FC23C0F801E8
:1040C000E052FF4F8F8D8083319688A18083BE019F
:1040D0006F5F7F4FC8018E519F4F0E94ED3312C01A
:1040E000A0FC10C0F801EE5FFE4F90823196E08296
:1040F000DE0154967496035E1E4F8D9181930E17C8
:104100001F07D9F7BA28F601B0828F2DA0960FB6F7
:10411000F894DEBF0FBECDBFDF91CF911F910F91FD
:10412000FF90EF90DF90CF90BF90AF909F90089559
:10413000A1FC41C142E064E9C8010E944A0AE82E9C
:10414000C8010E94D90F8E29F82AAE01415E5F4F47
:1041500060E9C8010E94110FF82A4BE764E9C80121
:104160000E944A0AF82AC8010E94D90FF82AAE0113
:10417000405E5F4F60E9C8010E94110FF82A47E7CF
:1041800064E9C8010E944A0AF82AC8010E94D90FAE
:10419000F82AAE01465E5F4F60E9C8010E94A60D95
:1041A000F82A4A8D5B8D6C8D7D8DDB01CA0129E17A
:1041B000B695A795979587952A95D1F78983DB01C1
:1041C000CA0132E1B695A795979587953A95D1F7AB
:1041D0008F778A83DB01CA01EBE0B695A7959795A7
:1041E0008795EA95D1F78F778B83DB01CA01F4E0DD
:1041F000B695A79597958795FA95D1F78F778C8384
:10420000440F440F440F48774E8F48E764E9C801D4
:104210000E944A0AF82AC8010E94D90FF82AAE0162
:10422000465E5F4F60E9C8010E94A60DF82A8A8D9C
:104230009B8DAC8DBD8DAC01BD012DE17695679553
:10424000579547952A95D1F72E8D240F2D83AC01D4
:10425000BD0136E176956795579547953A95D1F723
:104260004F774E83AC01BD01EFE07695679557958A
:104270004795EA95D1F74F774F83292F2F772887D6
:10428000AC01BD0176956795579547954F7749875E
:10429000982F9295990F990F90749E8F49E764E932
:1042A000C8010E944A0AF82AC8010E94D90FF82AB8
:1042B000AE01465E5F4F60E9C8010E94A60DF82A74
:1042C0008A8D9B8DAC8DBD8DAC01BD012AE17695AB
:1042D0006795579547952A95D1F72E8D240F2A87F4
:1042E000AC01BD0133E176956795579547953A95B1
:1042F000D1F74F774B87AC01BD01ECE07695679520
:1043000057954795EA95D1F74F774C87AC01BD019A
:10431000F5E07695679557954795FA95D1F74F77DC
:104320004D87982F990F990F9C779E8F4AE764E9E4
:10433000C8010E944A0AF82AC8010E94D90FF82A27
:10434000AE01465E5F4F60E9C8010E94A60DF82AE3
:104350008A8D9B8DAC8DBD8DAC01BD012EE1769516
:104360006795579547952A95D1F72E8D240F2E875F
:10437000AC01BD0137E176956795579547953A951C
:10438000D1F74F774F872A2F2F77288BAC01BD01AC
:10439000E9E07695679557954795EA95D1F74F7778
:1043A000498BF2E0B695A79597958795FA95D1F741
:1043B0008F778A8B1B8AE12C912C48CE2F923F92CB
:1043C0004F925F926F927F928F929F92AF92BF9225
:1043D000CF92DF92EF92FF920F931F93CF93DF93D1
:1043E000CDB7DEB7C854D1090FB6F894DEBF0FBE03
:1043F000CDBF811195C462E087E00E94330460E084
:1044000087E00E94C20364E670E080E090E00E94D2
:10441000B60461E087E00E94C20364E670E080E0D9
:1044200090E00E94B60455245394E091F107F09176
:10443000F207EF5BFE4F89E28083E091F107F09194
:10444000F207EE5BFE4F5082E091F107F091F20728
:10445000ED5BFE4F80E991E091838083E091F1076D
:10446000F091F207EB5BFE4F8DE496E09183808341
:104470001092B0051092AF051092AE051092AD05E6
:104480000E94020788EB91E09093AC058093AB0506
:1044900089EB91E09093AA058093A90521E04EEF66
:1044A00069E88AEA96E00E94C00E811106C040E0E9
:1044B00068E88AEA96E00E944A0AAE01455C5F4FCE
:1044C00060EC8AEA96E00E94110F1092890788EE4C
:1044D00093E09093E4078093E307A0E9B1E0B09301
:1044E000E607A093E50785E89BE6A1E0B0E08093AE
:1044F000E7079093E807A093E907B093EA0784EAF7
:1045000090E7A9E0B0E08093720790937307A093BF
:104510007407B09375071092C7061092C8061092E0
:10452000C9061092CA06DE0111961D01BD018AEA74
:1045300096E00E948216182F81110AC019821A82F1
:104540008AE3F101AAEBB6E001900D928A95E1F7BA
:1045500084E690E09093CC078093CB0784E893E0C7
:104560009093CE078093CD0784EF91E09093D0078E
:104570008093CF0780E09AE09093D3078093D2078F
:104580005092E20741E060E88AEA96E00E944A0A17
:10459000782E41E06FEF8AEA96E00E944A0A782A74
:1045A000712A40E060E08AEA96E00E944A0A782A8E
:1045B000AE01415C5F4F61E98AEA96E00E94110F0B
:1045C000782A8FAD8093D10741E060E08AEA96E0D7
:1045D0000E944A0A782A40E06FEF8AEA96E00E9439
:1045E0004A0A782A40E060E88AEA96E00E944A0A8D
:1045F000782A10E000E0711081C10330110509F440
:1046000069C17CF401301105D9F00230110509F4BB
:104610005EC15092CF06F801E755F94F56A280E0EF
:1046200025C00430110509F458C120E04FEE0530D3
:10463000110579F760E68AEA96E00E94C00E14C080
:104640004091DF065091E0066091E1067091E2062C
:10465000E9E07695679557954795EA95D1F764E433
:104660008AEA96E00E94200A8823A9F20F5F1F4F72
:10467000782E0630110509F0BECF811158C0109276
:10468000D1061092D20622E04EEF60E68AEA96E06A
:104690000E94C00E81114BC01092D30620E14FEE54
:1046A00060E68AEA96E00E94C00E811140C0109236
:1046B000D40680E090E0A2E1B0E08093DB06909326
:1046C000DC06A093DD06B093DE068091D006811152
:1046D00007C180E090E4A0E0B0E08093DF06909313
:1046E000E006A093E106B093E20680E090E0A3E24A
:1046F000B0E08093E3069093E406A093E506B093C0
:10470000E6061092E7061092E8061092E90610926B
:10471000EA068FEF8093C7074FEF61E08AEA96E0E1
:104720000E944A0A5092C907882309F4E4C0809382
:10473000A90649E26AE88091F1079091F2070E9488
:104740004A0A8093A9066AE070E080E090E00E9447
:10475000B6048091A906811193C1E091F107F0910F
:10476000F207EF5BFE4F89E2808362E08AEA96E01F
:104770000E94791F882309F4C3C08093A906811180
:104780000BC080915408813021F48091550881300C
:1047900019F08BEF8093A9068091A90681110AC1B7
:1047A0006090F1077090F2078AE3D1011D928A951B
:1047B000E9F725961FAE1EAE259728961FAE2897BF
:1047C00027961FAE279723961CAE1DAE1EAE1FAEBA
:1047D000239761E0C3010E94791FF301ED5FFE4F53
:1047E0004080B1E0B41508F4D7C031978081299694
:1047F0008FAF2997A82EB12CD12CC12C4B12C5C03C
:1048000091E2A916B104C104D10408F0C5C041E089
:104810006FEFC3010E944A0A81111AC040E06FE4A1
:10482000C3010E944A0A811113C04CE26EE4C30125
:104830000E944A0A81110CC040E06FEFC3010E9440
:104840004A0A811105C044EB66EBC3010E944A0A83
:1048500093012F5E3E4FF9011082319610823196FE
:104860001082319610823196108231961082E12C9E
:10487000F12C8701442009F428C1D801C7018C54C8
:104880009F4FAF4FBF4F46E0B695A7959795879539
:104890004A95D1F7880F991F880F991F8C5A9D4F01
:1048A000FC0180819181A281B381892B8A2B8B2B82
:1048B00009F00BC1FCE2EF16F1040105110509F442
:1048C00004C18FEFE81AF80A0F4F1F4FD6CF50924E
:1048D000D106A1CE5092D2069ECE20E04EEFAACEB7
:1048E00040E250E064E48AEA96E00E94200A8823CD
:1048F00009F4EFCE1CCF1092AE0719CF872D17CF3A
:1049000080918A07811129C06AE872E083E398E008
:104910000E94ED3362EF72E083EF97E00E94ED3387
:104920006BE273E083E198E00E94ED3343E558E0E9
:1049300060EC8AEA96E00E94110F81111ECFA1015E
:1049400062EC8AEA96E00E94110F50925408998115
:1049500092959F709093550810CF10918B076CE83B
:1049600077E083E398E00E94ED33112399F213324C
:1049700038F46EEF72E0103279F66AE073E0CCCF73
:1049800066E173E0173240F6F8CFADE0AA16B10445
:10499000C104D10408F43BCFAE014A5B5F4FBE01B6
:1049A000615C7F4FC3010E94331A882309F4A4C0BD
:1049B0008093A9068091A90681110CC0AE014D5BC0
:1049C0005F4FB1018091F1079091F2070E94331A75
:1049D0008093A9068091A90681110FC021E0AE0144
:1049E000455C5F4FBE01615C7F4F8091F107909104
:1049F000F2070E94BE198093A9068091A906811131
:104A00003FC0E091F107F091F207108AE091F107C1
:104A1000F091F20755A20091F1071091F207D80129
:104A2000D5964D915D916D917C91D89789E0769561
:104A30006795579547958A95D1F764E4C8010E9418
:104A4000200A811102C0F80156A28093A9068111A3
:104A500017C0E091F107F091F20750A6E091F1073D
:104A6000F091F207FD9684ED98E0A0E0B0E080833D
:104A70009183A283B3838091A906882309F45AC144
:104A80008CEA90E00E943B0388E892E00E94690B68
:104A900083E992E00E94760B60E087E00E94C20307
:104AA00064E670E080E090E00E94B60461E087E098
:104AB0000E94C20384EC92E00E94760B64E670E0F0
:104AC00080E090E00E94B604B0CCDE01DB964D01A0
:104AD000A301495E5E4F642DC3010E94C10C811188
:104AE00064CFF301EC5FFE4F508232972996BFAD41
:104AF0002997B08331964082F301E85CFE4F8081B4
:104B000060E071E0811103C0329760817181C3015F
:104B10000E94720A81114CCF44E06AE0C3010E94F6
:104B20004A0A811145CF20E04FEE64E8C3010E949C
:104B3000C00E81113DCF84E0F301E253FF4F80832B
:104B4000C3010E94870F811133CF41E06FEFC30192
:104B50000E944A0A482EAE014D5B5F4F64E8C301D4
:104B60000E94EF0D482A40E06FEFC3010E944A0AFD
:104B7000842909F01DCFF301E853FF4F25968EAD30
:104B80009FAD259724E0880F991F2A95E1F7B0E0A3
:104B9000A0E080839183A283B383B101C3010E940B
:104BA0008216811105CFAE01495B5F4F69E0C301F9
:104BB0000E94110F8111FCCE28968FAD289781702D
:104BC00028968FAF2897F301E25EFE4F80838AE339
:104BD000F101D301509601900D928A95E1F7AE0153
:104BE000495B5F4F61E0C3010E94110F8111E0CE6C
:104BF0008301035E1E4F28968FAD2897F8018083AE
:104C00001BAEAE01455C5F4F61E0C3010E94110F16
:104C10008111CECE8BADF82EE894F4F884FF11C04C
:104C20004F2D61E0C3010E944A0A8111C1CED80113
:104C3000FC92F3014289538964897589C3010E94FA
:104C400041181BAEAE01455C5F4F61E0C3010E949D
:104C5000110F8111ADCE8BADF82EE894F2F882FFE2
:104C600011C04F2D61E0C3010E944A0A8111A0CEFC
:104C7000D801FC92F3014289538964897589C30183
:104C80000E94411883E0F301E15EFE4F8083AE0194
:104C90004B5B5F4F60E0C3010E94BA0F811188CE69
:104CA00026968FAD2697F301E852FF4F8083AE0121
:104CB0004B5B5F4F61E0C3010E94BA0F811178CE58
:104CC00026968FAD2697F301ED52FF4F8083AE01FC
:104CD000455C5F4F63E0C3010E942B16811168CED3
:104CE0008BAD9CADADADBEADF301EC52FF4F8083FB
:104CF0009183A283B383AE01455C5F4F64E0C3013F
:104D00000E942B16811154CEF301E153FF4F4BAD9E
:104D10005CAD6DAD7EAD408351836283738348CEBD
:104D200080918305909184050196909384058093EA
:104D3000830565CBC85BDF4F0FB6F894DEBF0FBEAF
:104D4000CDBFDF91CF911F910F91FF90EF90DF903A
:104D5000CF90BF90AF909F908F907F906F905F901B
:104D60004F903F902F9008951F93CF93DF9383E34D
:104D700093E00E94760B6AE070E080E090E00E9491
:104D8000B60481E00E94DE21E091F107F091F20784
:104D900011E015A31092A906C091F107D091F20776
:104DA0004DA95EA96FA978AD89E07695679557956D
:104DB00047958A95D1F764E4CE010E94200A8111BB
:104DC00001C01EA38093A90681114BC0C091F107B9
:104DD000D091F2078EA1811117C080E090E4A0E08D
:104DE000B0E08DAB9EABAFABB8AFE091F107F09107
:104DF000F20780E090E0A2E1B0E081AB92ABA3AB20
:104E0000B4AB1092A90614C040E250E064E4CE01B5
:104E10000E94200A811108C040E050E460E070E088
:104E20004DAB5EAB6FAB78AF8093A9068823E9F2F8
:104E30008091A90681110CC040E45DE063E070E060
:104E40008091F1079091F2070E9441188093A90682
:104E50008091A906811105C0E091F107F091F20758
:104E600010A664E670E080E090E00E94B604DF9156
:104E7000CF911F910C9415111F920F920FB60F92A4
:104E800011248F939F938091E1009091E100937F93
:104E90009093E10083FF0FC01092E90091E090939E
:104EA000EB001092EC0092E39093ED001092A805B5
:104EB00098E09093F00082FF22C093E09093E90085
:104EC0009091F200992319F09AE39093E800909161
:104ED0007C05992341F090917C05915090937C053D
:104EE000911101C05D989091A705992341F090918F
:104EF000A70591509093A705911101C0289884FFB0
:104F000018C08091E2008E7E81608093E2008091E3
:104F1000E1008F7E8093E10080917D058E7E80612F
:104F200080937D059F918F910F900FBE0F901F90E2
:104F3000189580FFF7CF8091E2008E7E806180938C
:104F4000E2008091E1008E7E8093E10080917D05FA
:104F50008E7E8160E5CF1F920F920FB60F921124C3
:104F6000CF92DF92EF92FF920F931F932F933F9375
:104F70004F935F936F937F938F939F93AF93BF9361
:104F8000EF93FF93CF93DF93CDB7DEB76C97DEBF80
:104F9000CDBF1092E9008091E80083FF25C068E052
:104FA000CE0145960E94D30282EF8093E8008D895E
:104FB00087FF39C09091E80090FFFCCF982F907642
:104FC00009F034C19E894F89588D2F89F88C911131
:104FD00031C0803861F580917E058093F100109298
:104FE000F1008EEF8093E8006C960FB6F894DEBF68
:104FF0000FBECDBFDF91CF91FF91EF91BF91AF91E8
:105000009F918F917F916F915F914F913F912F91E0
:105010001F910F91FF90EF90DF90CF900F900FBEF8
:105020000F901F9018959EEF9093E800C7CF1092B5
:10503000F100D5CF913059F48111D3CF41305105D2
:1050400081F680917E058D7F80937E05CACF933057
:1050500049F48111C6CF4130510519F680917E0582
:105060008260F2CF953041F48091E80080FFFCCF60
:1050700020682093E300B5CF963009F0A9C00B8DCE
:105080001C8D22E01092E90010927A0510927905A9
:10509000F2122EC010927805109277050E94F40249
:1050A0001F8299E09983FA8291E09E8390EA988723
:1050B0009AEF99872091790530917A05275F3F4FC4
:1050C0003C832B838D831092E90010927A05109215
:1050D0007905109378050093770549E050E0BE010B
:1050E0006F5F7F4F80E00E949C020E94F40279CFA4
:1050F00010937805009377050E94E002DC01129678
:105100000D911C910115110509F451C1D801ED91C2
:10511000FC910480F581E02DBE016B5E7F4FC801DC
:105120000995009709F03EC1F80100851185EACF85
:10513000F3E0FF120EC08F89882309F440C082304B
:1051400061F440E860E186EB91E00E946902811120
:1051500048CF81E28093EB0047CF813029F440E8CB
:1051600067E08EEA91E0F1CF833099F70E94E00288
:10517000DC011296ED90FC908E010F5F1F4F6801CD
:10518000E114F10479F0D701ED91FC910680F781EB
:10519000E02DB801C7010995080F111DF701E08442
:1051A000F184EECFD8011C92F60101900020E9F7BE
:1051B0003197BF016C197D0940E0C601C6CF68E98F
:1051C00071E0FB01449150E080E80E949C0209CF0D
:1051D000973009F4BECF983021F481E08093F1003C
:1051E00000CF993009F0FDCE837009F0B2CFE4EF23
:1051F000F1E081E031E096E32191222371F0809388
:10520000E9003093EB00DF0111972C912093EC0023
:105210009093ED008F5F873079F78EE78093EA00F7
:105220001092EA008F898093A805DBCE8B8D9C8D30
:105230001092E90010927A05109279059093780502
:1052400080937705898D811192C08E899D89913ACD
:1052500049F4813209F07DCF47E050E06EEF71E014
:1052600080E0B3CF913209F074CF833269F48F8933
:10527000988DB0E0A0E08093FA019093FB01A09399
:10528000FC01B093FD01ADCE803269F48091E8005D
:1052900082FFFCCF67E08EEF91E00E94D3028BEF9C
:1052A0008093E8009ECE823209F09BCE8F89809356
:1052B0000502EEEFFFE7859194918B3F9C4D51F1F4
:1052C000E0E0F8E08091FE019091FF01A0910002E2
:1052D000B0910102803B9440A105B105F1F48091A9
:1052E000050280FD1AC0EE3F8AE0F80789F587E7DE
:1052F00097E7918380838091600080937B0588E1AC
:105300009BE00FB6F894A895809360000FBE909331
:10531000600067CEEEEFFAE0D5CF808191818737CC
:10532000974709F05ECEA8958091600088618093D0
:10533000600080917B0580936000EE3F2AE0F207D9
:1053400089F08091FE0A9091FF0A9183808349CE73
:10535000808191818737980751F29093FF0A80935B
:10536000FE0AC5CF1092FF0A1092FE0A3ACE0E94A2
:10537000E002DC0112960D911C910115110509F452
:10538000E8CED801ED91FC910190F081E02DBE01B5
:105390006B5E7F4FC8010995811123CEF80100850E
:1053A0001185EBCF181619060CF41BCED2CEF1E006
:1053B000FF12BECE6CE971E004CF1F920F920FB6C0
:1053C0000F9211242F933F938F939F93AF93BF938B
:1053D0008091630590916405A0916505B091660583
:1053E0003091620523E0230F2D3758F50196A11D5A
:1053F000B11D209362058093630590936405A0938B
:105400006505B09366058091670590916805A09148
:105410006905B0916A050196A11DB11D80936705CC
:1054200090936805A0936905B0936A05BF91AF9109
:105430009F918F913F912F910F900FBE0F901F90D2
:10544000189526E8230F0296A11DB11DD2CF1F92F9
:105450000F920FB60F9211242F933F934F935F93A8
:105460006F937F938F939F93AF93BF93EF93FF932C
:105470008091B900887F803609F44AC0F0F58832FF
:1054800009F4A7C018F5803109F49BC0B8F488234B
:1054900009F4F9C0883009F494C0FF91EF91BF91ED
:1054A000AF919F918F917F916F915F914F913F91BC
:1054B0002F910F900FBE0F901F901895883109F40F
:1054C00088C0803251F78093D50514C0803409F428
:1054D0009DC040F48033B9F38833F9F68093D50545
:1054E00085ECB0C0803509F485C0883509F496C0D4
:1054F000883499F60E94411FD0CF883909F48CC0B6
:1055000038F5883729F050F4883611F0803729F6BD
:1055100083E08093F7051092460557C0883809F458
:105520007BC0803919F0803809F0B7CF80914605EB
:10553000803208F071C0E091460581E08E0F8093C3
:1055400046058091BB00F0E0EA5DFA4F80833DC0E4
:10555000803B39F0E0F4803A09F479C0883A09F0E8
:105560009CCF84E08093F7051092250510922405C6
:10557000E091AB05F091AC0509958091240581116E
:105580000FC081E0809324051092040509C0803C7F
:1055900009F4A6CF883C09F4A3CF883B09F07DCF5E
:1055A000E091250581E08E0F80932505F0E0EC5F0A
:1055B000FA4F80818093BB0090912505809124054E
:1055C00029C08091D2058093BB0085EC8093BC00FC
:1055D00064CF9091D4058091D305981758F5E09148
:1055E000D40581E08E0F8093D405F0E0EF54FA4F9C
:1055F0008081E9CFE091D40581E08E0F8093D405BE
:105600008091BB00F0E0EF54FA4F80839091D40575
:105610008091D3059817C8F285E8D8CFE091D405DA
:1056200081E08E0F8093D4058091BB00F0E0EF54B1
:10563000FA4F80838091D60581115CCF81E0809301
:10564000D10584EA8093BC001092F70526CF85EC43
:105650008093BC001092F70580914605803230F4AB
:10566000E0914605F0E0EA5DFA4F10826091460550
:1056700070E0E091A905F091AA0586E295E0099510
:10568000109246050ACF1092D50534CFEF92FF92C3
:105690000F931F93CF93DF93CDB7DEB7C659D109D0
:1056A0000FB6F894DEBF0FBECDBF10920006109269
:1056B000FF0588EE93E0A0E0B0E0809301069093B0
:1056C0000206A0930306B093040628E632E0309366
:1056D000FE052093FD052FEF3FEF30930A06209340
:1056E00009061092500610924F068093510690932F
:1056F0005206A0935306B09354068AE792E0909323
:105700004E0680934D068EEA91E0E9EAF6E0DF016D
:105710009C011D9221503040E1F78AEA96E0909377
:10572000F2078093F107109274061092730610929C
:10573000770610927C0610927B068FEF93E0909391
:105740007E0680937D061092800610927F069093CD
:1057500082068093810610928406109283069093AD
:10576000860680938506109288061092870690938D
:105770008A068093890610928C0610928B0690936D
:105780008E0680938D061092900610928F0690934D
:10579000920680939106109294061092930690932D
:1057A000960680939506109298061092970690930D
:1057B0009A068093990610929C0610929B069093ED
:1057C0009E0680939D061092A00610929F069093CD
:1057D000A2068093A1061092A4061092A3069093AD
:1057E000A6068093A50643E04093A70620E42093F5
:1057F0007606109278068BE18093790640937A06BC
:1058000035E0398391E09A8389E08B8354E0E52E7B
:10581000EC8261EA6D839E8355E85F834887398710
:105820008A8749E14B879C8749E24D872E8745E16E
:105830004F87188A45E2498B9A8BE5E7EB8B9C8B67
:1058400075E97D8B2E8B25E52F8B188E25E6298F0C
:105850001A8E51E85B8F22E02C8F3D8F9E8F8F8FA9
:1058600098A3F6E1FF2EF9A29AA300E80BA316E293
:105870001CA3BFEFBDA3AFE7AEA3EFA3F0E1F8A772
:1058800079A7EAA66BA71CA68DA740E34EA78FA712
:1058900041E348AB89AB43E34AAB8BAB44E34CAB4E
:1058A0005DAB2EAB40EC4FAB38AF29AFFAAE9BAF40
:1058B0000CAF1DAFBEAFAFAF2196EFAF21972296D1
:1058C000FFAF229723967FAF239724962FAF24977D
:1058D00025966FAF259726961FAE269727968FAFF2
:1058E00027979AEB28969FAF289729968FAF2997ED
:1058F0008BEB2A968FAF2A972B965FAF2B972C9620
:105900002FAF2C972D964FAF2D972E964FAF2E97EA
:105910008DE490E00E94BF327C018DE4FE0131965F
:10592000D70101900D928A95E1F787E090E00E94FF
:10593000BF328C01DC0111961C921E921396FC92D0
:10594000EE9212978DE490E015969C938E931497A7
:1059500016961C920E945F06FC01A385B4851097E1
:1059600009F077C01487038785859685D80114963A
:105970002D913C91820F931F968785879091760693
:10598000892F869586958695977009F06AC08093D1
:10599000770610917706812F90E0009711F481E04F
:1059A00090E00E94BF32909374068093730681E06A
:1059B00090917806911101C080E0145F810F80936F
:1059C000A80610925A061092590610925C06109280
:1059D0005B0610925E0610925D06109260061092B1
:1059E0005F06109262061092610610926406109291
:1059F0006306109266061092650610926806109271
:105A0000670610926A061092690610926C06109250
:105A10006B0610926E0610926D068FEF9FEF9093BB
:105A2000700680936F06909372068093710690E0E3
:105A300080E02091770628171906A9F0A4F0E091DC
:105A40007306F0917406E80FF91F10820196F1CFEA
:105A5000DC018D919C9111970097D1F70D931C93C8
:105A600083CF8F5F94CFCA56DF4F0FB6F894DEBF57
:105A70000FBECDBFDF91CF911F910F91FF90EF909F
:105A80000895CF93DF93CDB7DEB7C357D1090FB6D3
:105A9000F894DEBF0FBECDBF789484B5826084BD1C
:105AA00084B5816084BD85B5826085BD85B5816022
:105AB00085BD80916E00816080936E0010928100A0
:105AC000809181008260809381008091810081605B
:105AD000809381008091800081608093800080911C
