:100000000C94D9000C9401010C9401010C94010191
:100010000C9401010C9401010C9401010C94010158
:100020000C9401010C9401010C942F260C949E2633
:100030000C9401010C9401010C9401010C94010138
:100040000C9401010C9401010C9401010C94010128
:100050000C9401010C9401010C9401010C94D02822
:100060000C9401010C9401010C9401010C94010108
:100070000C9401010C9401010C9401010C940101F8
:100080000C9401010C9401010C9401010C940101E8
:100090000C941A290C9401010C9401010C94010197
:1000A0000C9401010C9401010C94010150726573D0
:1000B0007320427574746F6E2000070605040100FA
:1000C000080A0B0C0D090000000200090F000003D4
:1000D0000401000C0000000000000000000000000F
:1000E0000000000000080B000202020000090400EA
:1000F0000001020200000524001001052401010195
:1001000004240206052406000107058103100040AF
:1001100009040100020A0000000705020240000075
:10012000070583024000000403090412010002EFE6
:1001300002014098879887000101020301556E6B08
:100140006E6F776E005363686E6F6F6720546872CE
:100150006F74746C650000000000250028002B00FF
:100160002E00310000000000240027002A002D008E
:100170003000040404040403040502020202040320
:100180000202020206060606060604040202020431
:100190000404080201104080401020408040800884
:1001A00002040180402010020110801020404020F5
:1001B000392A11241FBECFEFDAE0DEBFCDBF12E037
:1001C000A0E0B1E0EAE3F6E602C005900D92AE3E93
:1001D000B107D9F727E0AEEEB2E001C01D92A13E13
:1001E000B207E1F710E0C9EDD0E004C02197FE01AD
:1001F0000E94E031C83DD107C9F70E94342C0C940D
:100200001B330C940000CF93DF9300D000D0CDB708
:10021000DEB719821A821B821C8289819A81AB8186
:10022000BC818A3F9105A105B10568F40000898170
:100230009A81AB81BC810196A11DB11D89839A83EE
:10024000AB83BC83EACF80E00F900F900F900F90AC
:10025000DF91CF9108954F925F926F927F928F922C
:100260009F92AF92BF92CF92DF92EF92FF920F9345
:100270001F93CF93F9010FEF1FEF980100831183B4
:10028000228333834A015B01B3E0B694A794979429
:100290008794BA95D1F76A017B0127E0C222DD2459
:1002A000EE24FF2495018401C0E0063011052105EC
:1002B000310508F041C0C1113FC0DC01A00FB11FE2
:1002C0006C91412C512C320180169106A206B30686
:1002D00049F470E00C2C02C0759567950A94E2F71A
:1002E00026013701462F50E060FF17C0B901A80171
:1002F000A3E0440F551F661F771FAA95D1F7440E40
:10030000551E661E771E4082518262827382C1E052
:100310000F5F1F4F2F4F3F4FC8CFBA01759567959D
:100320004FEF441A540A640A740A48E04416510410
:1003300061047104B9F6ECCFCF911F910F91FF903A
:10034000EF90DF90CF90BF90AF909F908F907F9075
:100350006F905F904F90089508950895CF93DF9325
:1003600090E0FC01EF56FE4F24918E589E4FFC0109
:1003700084918823C1F090E0880F991FFC01EC590B
:10038000FE4FC591D491FC01EA5AFE4FA591B4915C
:100390009FB7F8948881E22FE0958E2388838C9113
:1003A000E823EC939FBFDF91CF910895CF92DF9226
:1003B000EF92FF920F931F93CF93DF93D901E80140
:1003C0006A01F9014217530714F06901FA01882301
:1003D00009F440C0CB016C157D050CF4C6019F01EA
:1003E0008E179F070CF49C01A417B50734F4CF01B6
:1003F000821B930B9C012C0D3D1D0D2C000CEE0857
:10040000FF08032E000C440B550B2C193D094E0917
:100410005F09AEEFBFEF0E946C319F01FF0F440BED
:10042000550B2C193D094E095F090E944D31DA0127
:10043000C9018F5F9F47A109B1098883998382E031
:1004400090E0DF91CF911F910F91FF90EF90DF909F
:10045000CF90089590E080E0F4CFFC0180912E05CC
:10046000882311F13FB7F89482E08093E90020914E
:10047000F200822F90E01816190614F481E090E043
:10048000882339F0289A44E640932D054091F100E5
:100490004083222339F02091F200211103C02BE682
:1004A0002093E8003FBF08958FEF9FEF089540919C
:1004B000050550910605209103053091040542176A
:1004C0005307B4F49091E8009570E1F39091E8003F
:1004D00092FD19C08093F100809105059091060569
:1004E00001968F739927892B19F48EEF8093E8007A
:1004F00080910505909106050196909306058093DD
:10050000050581E0089580E00895EF92FF920F9332
:100510001F93CF93DF93F82E192FE62E042F81E03F
:10052000860F880F0E94570283E00E945702CF2D4A
:10053000D12FEC0EFD2EF11CCE15DF05B9F007FF13
:1005400013C0FE0184910E945702182F80E00E9480
:100550005702812321968111EFCFDF91CF911F9117
:100560000F91FF90EF9008958881EDCF81E0F5CF56
:10057000DF92EF92FF920F931F93CF93DF93D82ECA
:100580008A01EB017B01E40EF51ECE15DF0559F063
:10059000D7FE12C0FE0184910E945702219681115C
:1005A000F4CF0FEF1FEFC801DF91CF911F910F9193
:1005B000FF90EF90DF9008958881EECF2FB7F894E9
:1005C00087708093E9009091E800892F807295FFF1
:1005D00004C09091F20080E4891B2FBF0895615000
:1005E00030F02091F100FC0120830196F8CF289A89
:1005F00084E680932D0508958091FB0481110DC040
:1006000082E08093F70484E08093F8041092FA0467
:100610001092F90481E08093FB0487EF94E0089541
:100620000F931F93CF93DF931F92CDB7DEB782E076
:10063000898342E450E065EE70E080E80E94B802F1
:100640000E94FC02DC0112960D911C91011511050E
:1006500089F0D801ED91FC910280F381E02DBE017B
:100660006F5F7F4FC801099597FD04C0F8010085B1
:100670001185ECCF89810F90DF91CF911F910F9160
:100680000895CF93DF931F92CDB7DEB76983DC0166
:10069000ED91FC910280F381E02D41E050E0BE013C
:1006A0006F5F7F4F09950F90DF91CF91089583E0A1
:1006B0008093E9008091F200882319F08AE3809307
:1006C000E800089583E00E94DE0290E00895CF9351
:1006D000DF931F92CDB7DEB7FC018485958597FD2A
:1006E00008C02FEF3FEF358724870F90DF91CF9120
:1006F0000895CE0101960E942D02019719F4898177
:1007000090E0F3CF8FEF9FEFF0CF0F931F93CF9336
:10071000DF931F92CDB7DEB78C01FC0184859585F0
:1007200097FF0BC0CE0101960E942D02019771F434
:10073000898190E0F80195878487F8018485958503
:100740000F90DF91CF911F910F9108958FEF9FEF41
:10075000F1CFFC018485958597FD0BC09FB7F89478
:1007600082E08093E9008091F2009FBF90E00196C3
:1007700008959FB7F89482E08093E9008091F20099
:100780009FBF90E00895282F30E0F901EA53FF4F12
:100790009491F901EF56FE4F84912E583E4FF90186
:1007A0002491222309F430C09923E9F091509F301D
:1007B000D0F4E92FF0E0E152FC4F0C94E0310D044D
:1007C0001104EE0305040904F303F303F303140413
:1007D0001A041E0422042804F3032C0490918000C0
:1007E0009F7790938000E22FF0E0EE0FFF1FEA5A10
:1007F000FE4FA591B4919FB7F894EC91611132C06E
:1008000080958E238C939FBF0895909180009F7D4B
:10081000E8CF90918000977FE4CF94B59F7794BD07
:10082000E2CF94B59F7DFBCF909190009F779093FE
:100830009000D9CF909190009F7DF9CF909190003A
:10084000977FF5CF9091C0009F779093C000CBCF5A
:100850009091C0009F7DF9CF9091C200977F9093B7
:10086000C200C1CF8E2BCECF8251E82FF0E0E654EC
:10087000FF4FE49190917B008E2F880F880F80723C
:100880009F7D892B80937B00E770E064E0937C0080
:1008900080917A00806480937A0080917A0086FD4E
:1008A000FCCF809178009091790008953FB7F8943B
:1008B0008091F3049091F404A091F504B091F604B2
:1008C00026B5A89B05C02F3F19F00196A11DB11DAB
:1008D0003FBFBA2FA92F982F8827BC01CD01620FE7
:1008E000711D811D911D42E0660F771F881F991FA2
:1008F0004A95D1F708958F929F92AF92BF92CF926F
:10090000DF92EF92FF924B015C010E9456046B0153
:100910007C010E9456046C197D098E099F09683E6E
:10092000734081059105A8F321E0821A9108A1087E
:10093000B10888EEC80E83E0D81EE11CF11C8114BA
:100940009104A104B10429F7FF90EF90DF90CF90BC
:10095000BF90AF909F908F9008957F928F929F92BB
:10096000AF92BF92CF92DF92EF92FF920F931F93BD
:10097000CF93DF93C82E8B017A0180912E058111D0
:1009800010C08FEF9FEFDF91CF911F910F91FF90DC
:10099000EF90DF90CF90BF90AF909F908F907F901F
:1009A00008958091090580FF05C08091E000826074
:1009B0008093E000CE2DDF2DD12C8AEFB82E8C2D28
:1009C0008770982E8C2D8072882E8C2D8074782EB6
:1009D0009AE3A92E209719F4DD2009F452C08C2D3A
:1009E0000E94DE0281110AC0BA94BB2051F261E07C
:1009F00070E080E090E00E947B04ECCF8C171D0635
:100A000011F00CF08C2F9FB7F8949092E900209190
:100A1000E80025FD02C09FBFDDCF282F30E0C21BBC
:100A2000D30B882029F08150A0F01092F100FBCF69
:100A3000F801C7FC0AC0815050F041914093F10089
:100A4000FACF44914093F10031968150D0F7020FD4
:100A5000131FDD2021F0A092E800D12CDCCF809183
:100A6000E80085FD07C0A092E800DD24D39420971C
:100A700091F2F3CF209779F6772069F2A092E800FF
:100A8000CACF5D9A84E680930805C7017CCFCF93D7
:100A9000DF93EC0180910502882331F083E00E940E
:100AA000AD041816190634F081E090E09B838A8328
:100AB00080E090E0DF91CF910895DC01FB01129678
:100AC0002C911297848195812817190641F4918100
:100AD0008081813A31F49D7F81E0913009F080E09E
:100AE00008958132E1F79B3029F482811F968C931F
:100AF00081E008959A3099F7828150968C93F8CFCF
:100B0000DC01FB0188E4808389E4818384E48283BF
:100B10001D969C911D979F709F5B93831D968D9151
:100B20009C9124E0969587952A95E1F78F708F5BCD
:100B3000848385E00895EF92FF920F931F93CF93E4
:100B4000DF93FB012081213889F52381223271F561
:100B5000DC0112964C91248135814217130631F540
:100B60008C01FC01C385D485F12CE12C209791F0F8
:100B70004C815D816A817B818E81811180E80E9438
:100B8000B8028F3F980759F0E80EF91E0990D881F6
:100B9000C02DECCF81E0D8011F968C93C701DF9167
:100BA000CF911F910F91FF90EF90089590E080E01A
:100BB000F6CFCF93DF93CDB7DEB769970FB6F89432
:100BC000DEBF0FBECDBFFC01DB018C918F5F8C932C
:100BD0009E012D5F3F4F8DE0D9011D928A95E9F767
:100BE00029E0298384E08A8391E09D8383E08E83DA
:100BF0002A8721E22B879C879D879F8722E2288B6B
:100C000027E02B8B25E02C8B8E8B20E430E0388F77
:100C10002F8B998F82818B8395858685998B8A8B83
:100C2000838180688D8B49E150E0BE016F5F7F4F0B
:100C300080E00E94B80269960FB6F894DEBF0FBE3E
:100C4000CDBFDF91CF910895CF93DF938091E604DC
:100C5000811167C081E08093D9048093DA042FED7D
:100C600034E03093DC042093DB041092DE04109215
:100C7000DD042CE432E03093D6042093D5041092A6
:100C8000E1041092E0041092E3041092E2048093D5
:100C9000E4048093E50481EC8093DF040E94FC026D
:100CA000FC0181819091D904482F490F5527551F88
:100CB000483051059CF5A281B381109709F525EDC7
:100CC00034E03383228320812093D7048093D80497
:100CD0008091DA04820F80832091DB04A22FB091EF
:100CE000DC048A2F821B8917C8F481813D91C82FAB
:100CF000D0E0CD50DE4F38838F5F8183F2CFD901B2
:100D000018962D913C91199721153105C1F725EDC4
:100D100034E019963C932E931897D5CF81E08093B9
:100D2000E60485ED94E0DF91CF910895DB01ED912C
:100D3000FC9111970190F081E02D682FCD0109946D
:100D40002091B004260F3327331F21323105ECF4F4
:100D500020917D05FC0190E080E0243069F082E084
:100D60000895A091B0042191AC0140575B4FA40FAE
:100D7000B52FB11D2C930196861798F38091B0047E
:100D8000680F6093B00480E0089581E008951092A8
:100D90007D0581E080935C051092570561E082E05B
:100DA0000E94C30361E083E00E94C303E9EBF0E02B
:100DB00080818E7F808380818D7F808388E4809393
:100DC000B80085E48093BC000895CF93DF9391E051
:100DD00090938F048823B9F0C091B800D091BA00E5
:100DE0008091BC008A7B8093BC0060E082E00E941E
:100DF000C30360E083E00E94C3030E94C706D09350
:100E0000BA00C093B800DF91CF910895CF92DF92DE
:100E1000EF92FF920F931F93CF93DF93D82FC62F9C
:100E2000613208F098C00E9456046B017C018091E9
:100E30007D0581116BC081E080937D0580935C0509
:100E40009FEF90935B0510925A059C0F9093590564
:100E50008093580580915805DD0FD82BD093580505
:100E600080915705813009F078C0109257050E9493
:100E700056046B017C01809158058093BB008091E2
:100E80007F0590918005A0918105B0918205892B05
:100E90008A2B8B2BA1F00E94560400917F051091A4
:100EA000800520918105309182056C197D098E099C
:100EB0009F09061717072807390708F448C08091CB
:100EC000BC0083FDD8CF85EC8093BC000E94560403
:100ED0006B017C0180917D05813009F440C08091D7
:100EE0005A058C1710F4C0915A05E7E3F5E0ADE51B
:100EF000B5E080E08C1355C08C2FDF91CF911F910E
:100F00000F91FF90EF90DF90CF90089580917F0533
:100F100090918005A0918105B0918205892B8A2B43
:100F20008B2B09F484CF0E94560400917F05109109
:100F3000800520918105309182056C197D098E090B
:100F40009F09061717072807390708F070CF809107
:100F50007E050E94E506C0E0CFCF85EEB5CF80913B
:100F60007F0590918005A0918105B0918205892B24
:100F70008A2B8B2B09F4AECF0E94560400917F057B
:100F80001091800520918105309182056C197D09B1
:100F90008E099F09061717072807390708F09ACF07
:100FA000D6CF91919D938F5FA5CF0895E09136059F
:100FB00080913505E81730F4F0E0E35AFA4F80816C
:100FC00090E008958FEF9FEF0895909136058091FE
:100FD00035052FEF3FEF981748F4E92FF0E0E35A7B
:100FE000FA4F208130E09F5F90933605C901089544
:100FF0008091350590913605891B990B0895CF9204
:10100000DF92EF92FF920F931F93CF93DF937C01B8
:10101000CB018A012091D404222389F0EB016B01DA
:10102000C40ED51ECC15DD0569F06991D701ED918F
:10103000FC910190F081E02DC7010995F3CF642F59
:101040000E94A006C801DF91CF911F910F91FF90E0
:10105000EF90DF90CF900895CF93DF931F92CDB79D
:10106000DEB769832091D4042223F9F0209133055F
:10107000203258F021E030E0FC013383228390E0FD
:1010800080E00F90DF91CF91089580913405E82F93
:10109000F0E0E159FB4F998190838F5F8093340595
:1010A0008093330581E090E0ECCF61E0CE010196C2
:1010B0000E94A006F7CFCF92DF92EF92FF920F939C
:1010C0001F93CF93DF93D091330581E0D13208F0A5
:1010D0009CC0C091D3040E9456046B017C01809196
:1010E0007D0581116CC082E080937D0581E0809355
:1010F0005C058FEF80935B0510925A05D0935905DC
:10110000AFE6B4E0E7E3F5E080E0D8138DC01092DD
:10111000580580915805CC0FC82BC0935805809175
:101120005705813009F084C0109257050E9456047B
:101130006B017C01809158058093BB0080917F05F5
:1011400090918005A0918105B0918205892B8A2B11
:101150008B2BA1F00E94560400917F051091800511
:1011600020918105309182056C197D098E099F09B6
:10117000061717072807390708F442C08091BC00FA
:1011800083FDD8CF85EC8093BC000E9456046B0190
:101190007C0180917D05823009F44CC080915B0513
:1011A0008F3F09F469C080915B05803209F466C005
:1011B00080915B05803309F463C084E026C0809190
:1011C0007F0590918005A0918105B0918205892BC2
:1011D0008A2B8B2B09F483CF0E94560400917F0544
:1011E0001091800520918105309182056C197D094F
:1011F0008E099F09061717072807390708F06FCFD0
:1012000080917E050E94E50685E0109234051092DB
:1012100033051092D404DF91CF911F910F91FF906D
:10122000EF90DF90CF9008959D9191938F5F6DCF58
:1012300085EEA9CF80917F0590918005A0918105D1
:10124000B0918205892B8A2B8B2B09F4A2CF0E94A7
:10125000560400917F051091800520918105309101
:1012600082056C197D098E099F0906171707280743
:10127000390708F08ECFC4CF80E0C7CF82E0C5CF5A
:1012800083E0C3CF1F93CF93DF93EC01862F142FFE
:1012900069817A819881906221E02093D4049093AF
:1012A000D30410923405109233050E94960669818A
:1012B0007A81812F0E94960689819A81DF91CF9150
:1012C0001F910C945B08CF93DF93EC01688383ED4F
:1012D00095E09A8389831092360510923505109215
:1012E0003405109233050E94C7068CEA91E0909372
:1012F000300580932F058DEA91E09093320580931D
:1013000031054FEF60E0CE010E9442094FEF61E0EE
:10131000CE010E94420940E064E0CE010E944209F1
:1013200040E065E0CE010E94420940E06CE0CE0161
:101330000E94420940E06DE0CE01DF91CF910C9414
:10134000420990E080E008958F929F92AF92BF9201
:10135000CF92DF92EF92FF920F931F93CF93DF9381
:101360006A014801E70191E09093D4048093D3048B
:101370001092340510923305E881F9810190F081D3
:10138000E02DC70109958C0C9D1CC814D90459F097
:10139000E881F9810190F081E02DD6016D916D0118
:1013A000CE010995F2CFCE010E945B0890E080E06B
:1013B000DF91CF911F910F91FF90EF90DF90CF9031
:1013C000BF90AF909F908F900895EF92FF920F93F0
:1013D0001F93CF93DF9300D0CDB7DEB7FC01EF5B57
:1013E000FE4F70813496E080F1804A83598302E099
:1013F00010E020E030E0AE014F5F5F4F872F0E948A
:10140000A409892B51F08CEE0F900F90DF91CF91B2
:101410001F910F91FF90EF90089580E0F5CFEF922C
:10142000FF920F931F93CF93DF931F92CDB7DEB739
:10143000FC01EF5BFE4F70813496E080F1804983C0
:1014400001E010E020E030E0AE014F5F5F4F872FFA
:101450000E94A409892B49F08CEE0F90DF91CF9167
:101460001F910F91FF90EF90089580E0F6CF3F928B
:101470004F925F926F927F928F929F92AF92BF92A4
:10148000CF92DF92EF92FF920F931F93CF93DF9350
:10149000CDB7DEB72C970FB6F894DEBF0FBECDBF29
:1014A0004B0130E020E0312CAE014F5F5F4F3A013D
:1014B000FC01EB5BFE4FFE83ED83AC014F5B5E4FA7
:1014C00058874F83B297FA87E987405251095C8762
:1014D0004B872C015BED451A5EEF550A5C01E8ED88
:1014E000AE1AEEEFBE0AF401E20FF31F00810023F3
:1014F00009F47CC031107AC069014FEFC41AD40AD4
:10150000D401AC0DBD1D6C910F3F09F047C06901BE
:1015100052E0C50ED11CD401AC0DBD1D8C916130C3
:10152000C1F040F0623011F1633061F1ECEF3E2E1A
:101530009601D9CF690194E0C90ED11C238190E0B6
:10154000982F8827820F911DEB85FC8591838083DE
:10155000EFCF690144E0C40ED11C238190E0982FA5
:101560008827820F911DE985FA85F0CF690144E053
:10157000C40ED11C238190E0982F8827820F911DE3
:10158000F201E4CF690144E0C40ED11C238190E054
:10159000982F8827820F911DF501D8CF053030F69E
:1015A0002E5F3F4FD401A20FB31FF301C02ED12CE9
:1015B000CF01861997098C159D051CF48D91819397
:1015C000F7CFC20ED31EED81FE81E080F18010E0E6
:1015D00030E020E0A301EF81F88580810E94A4091A
:1015E000892B09F4A5CF7CEE372EA2CF832D2C9624
:1015F0000FB6F894DEBF0FBECDBFDF91CF911F9124
:101600000F91FF90EF90DF90CF90BF90AF909F90A1
:101610008F907F906F905F904F903F900895EF92E2
:10162000FF920F931F93AB01FC01EB5BFE4FE08039
:10163000F1808F5B9E4F06E010E020E030E060EB31
:10164000FC0180810E94A409892B31F08CEE1F914E
:101650000F91FF90EF90089580E0F9CFFC01019089
:101660000020E9F73197AF01481B590BBC0183E813
:1016700095E00C9447058F929F92AF92BF920F9383
:101680001F93CF93DF93CDB7DEB7A1970FB6F89432
:10169000DEBF0FBECDBF19A2423008F44AE08E0172
:1016A0000F5D1F4F842E912CB12CA12CA50194010C
:1016B0000E947731E62FB901CA01EA30F4F4E05D07
:1016C000D801EE938D01232B242B252B79F790E065
:1016D00080E0109719F0CD010E942E0BA1960FB655
:1016E000F894DEBF0FBECDBFDF91CF911F910F9158
:1016F000BF90AF909F908F900895E95CE1CFCF921B
:10170000DF92EF92FF92CF93DF936B017C016DE24A
:1017100083E895E00E944103EC0166277727CB011F
:101720006C197D098E099F094AE00E943B0B8C0FC2
:101730009D1FDF91CF91FF90EF90DF90CF900895A4
:10174000BC01990F880B990B97FD0C947F0B4AE015
:101750000C943B0B7F928F929F92AF92BF92CF924D
:10176000DF92EF92FF920F931F93CF93DF93782E28
:101770006A014801E70181E08093D4047092D304A8
:101780001092340510923305E881F9810190F081BF
:10179000E02DC7010995C7010E945B08602F872DC6
:1017A0000E94060710923605809335058C0C9D1C0F
:1017B000C814D90459F0E881F9810284F385E02D39
:1017C000CE010995F60181936F01F2CF90E080E0A0
:1017D000DF91CF911F910F91FF90EF90DF90CF900D
:1017E000BF90AF909F908F907F9008952F923F92DF
:1017F0004F925F926F927F928F929F92AF92BF9221
:10180000CF92DF92EF92FF920F931F93CF93DF93CC
:10181000CDB7DEB72F970FB6F894DEBF0FBECDBFA2
:101820009C878B876D875F874E8739011701280159
:101830002F82388649865A8610E000E0EE24E39431
:10184000F12C0A151B0509F461C09E01295F3F4F69
:10185000B201A1018E859F850E942B014F81588581
:1018600069857A854F3F2FEF52076207720709F4A7
:101870009CC0DB01CA018C549F4FAF4FBF4FE6E0C5
:10188000B695A79597958795EA95D1F7880F991FF3
:10189000880F991F8C5A9D4F21E0FC018081918116
:1018A000A281B381892B8A2B8B2B09F420E0FD8543
:1018B000F2137BC01A012B0133E0569447943794FE
:1018C00027943A95D1F7DB01CA0187709927AA2797
:1018D000BB2726E0221631044104510468F4F301C9
:1018E000E20DF31D970102C0220F331F8A95E2F724
:1018F000C9019081892B80831A012B013FEF231AA4
:10190000330A430A530A0F5F1F4F9BCFB12CF401D8
:101910002082318242825382B1102DC0B3018B8567
:101920009C850E940F0BB82E811125C0EB85FC858C
:10193000EB5BFE4FE080F180EB85FC85EF5BFE4FBB
:1019400006E010E020E030E0AE014F5F5F4F60EB5B
:1019500080810E94AA0B892B11F09CEEB92EF30115
:10196000DE011196C301069631912D91321320C0EC
:10197000E817F907C9F78B2D2F960FB6F894DEBF3D
:101980000FBECDBFDF91CF911F910F91FF90EF90D0
:10199000DF90CF90BF90AF909F908F907F906F908F
:1019A0005F904F903F902F9008952EECB22EAFCFC6
:1019B0008EECB82EE0CFCF92DF92EF92FF920F9392
:1019C0001F93CF93DF9300D000D0CDB7DEB76A016D
:1019D000FC01EB5BFE4FE080F1808F5B9E4F04E0EB
:1019E00010E020E030E0AE014F5F5F4FFC018081EE
:1019F0000E94AA0B49815A8154274527542770E039
:101A000060E0762F652F542F44272B81422B762FB1
:101A1000652F542F44272C81422BF601408351839C
:101A200062837383892B71F480E00F900F900F9085
:101A30000F90DF91CF911F910F91FF90EF90DF906A
:101A4000CF9008958CEEF1CFCF92DF92EF92FF927C
:101A50000F931F93CF93DF9300D0CDB7DEB76A010A
:101A6000FC01EB5BFE4FE080F1808F5B9E4F02E05C
:101A700010E020E030E0AE014F5F5F4FFC0180815D
:101A80000E94AA0B29813A81322723273227F601A7
:101A900031832083892B61F480E00F900F90DF91D8
:101AA000CF911F910F91FF90EF90DF90CF9008950D
:101AB0008CEEF3CF0F931F93CF93DF9300D0CDB76E
:101AC000DEB7FC01E253FF4F208121502330B8F4F0
:101AD0008C01AE014F5F5F4F6EE00E94240D8111BB
:101AE00007C0AE014F5F5F4F6CE0C8010E94240D3C
:101AF0000F900F90DF91CF911F910F91089580E08B
:101B0000F7CFEF92FF920F931F93CF93DF9300D005
:101B1000CDB7DEB78C017A016330710509F449C095
:101B200090F46130710509F162307105E1F1F8015D
:101B300081A992A9A3A9B4A9F70180839183A28363
:101B4000B38380E049C06630710588F7AE014F5F0E
:101B50005F4F64E60E94240D81113EC0298180E020
:101B6000922F990FB0E0A0E0E7CFAE014F5F5F4F3B
:101B700064E40E94240D81112FC0998120E0392F47
:101B8000330FA90170E060E0232BD1F0F70140830F
:101B9000518362837383F80145AB56AB67AB70AF7B
:101BA00091E096A319C0FC0181AD92ADA3ADB4AD97
:101BB000C3CFFC01FD9680819181A281B381BCCF0E
:101BC000F80145A956A967A970ADF7014083518373
:101BD00062837383F80116A20F900F90DF91CF916B
:101BE0001F910F91FF90EF9008952F923F924F9287
:101BF0005F926F927F928F929F92AF92BF92CF929D
:101C0000DF92EF92FF920F931F93CF93DF93CDB7A5
:101C1000DEB7EC970FB6F894DEBF0FBECDBF6C01F8
:101C20005B01FC01EB5BFE4FE080F18034970CE040
:101C300010E020E030E0AE01465E5F4F64E180815D
:101C40000E94AA0B892B09F06FC2D50156961C92EF
:101C50005697F50110821182128213822CA130E076
:101C6000322F22276DA1260F311D14961D921D9231
:101C70001D921C921797E9A1F0E0FE2FEE27FF0FAF
:101C80002F01712C612C1C964D925D926D927C926D
:101C90001F978BA190E0982F8827990FAC0170E0D7
:101CA00060E050964D935D936D937C9353970C8DAC
:101CB00010E0102F00278D8D7801E80EF11CFCAE8E
:101CC000EBAE5596FC92EE9254979A8CD601A75C97
:101CD000BE4F4D915C9111975B978C90483E03E00D
:101CE0005007E1F1249FC001259F900D349F900D76
:101CF00011248C509E4F68EE73E00E94B8319B0116
:101D0000D6015D96ED90FD900D911C9190975A969D
:101D10004C91442319F16BAD7CAD6E9DA0016F9D7C
:101D2000500D7E9D500D1124452F5527E417F507C2
:101D300041F420EE3AE8882009F407C128EB32E2AA
:101D400010C0DF010E94993183017F01E41AF50A76
:101D500001091109A80197010E947731882009F42F
:101D6000F4C0C9019695879596958795D5011996E2
:101D70009C938E9318972295220F220F207C5796C2
:101D80002C931FA61EA6892D90E07C0173E0F5948C
:101D9000E7947A95E1F7FAAEE9AE09AD0F70902EAF
:101DA00009F4D8C089AD8D7011E018AB853029F0E9
:101DB00084EF800F843008F018AA41E06FEFC6016D
:101DC0000E940F0A811107C0AE01425D5F4F66EBB2
:101DD000C6010E94240D9EA520E0392F330F790102
:101DE00010E000E0E9AAFAAA0BAB1CAB811105C018
:101DF00040E06FEFC6010E940F0AF601EE5CFE4F55
:101E0000E9A8FAA80BA91CA9E082F1820283138336
:101E100081117FC1D60195968C909597882009F401
:101E2000A5C0F501E484F584068517855A968C9142
:101E300020E030E0A901882399F0A489B589F60152
:101E4000258D368D478D50A10E946C319B01AC01D0
:101E500020583F4F4F4F5F4F232F342F452F55278B
:101E60002E0D3F1D401F511FA8EEB3E00E946C31A4
:101E700070588F4F9F4FBC0188279927F601E65D68
:101E8000FE4F672B682B692B09F067C08EEA97E835
:101E9000AFE8B2E080839183A283B3831EEAE12E90
:101EA00017E8F12E0FE812E0EDAAFEAA0FAB18AF6B
:101EB000D5011B961C921E921A97AE01465D5F4F8C
:101EC00070E060E0C6010E94810D4AA55BA56CA58B
:101ED0007DA5411551056105710559F0FF24F39465
:101EE0000DA91EA92FA938AD401751076207730726
:101EF00008F0F12C212C312C81110FC1D6019796BD
:101F00003C903320A9F1AE014A5D5F4F62E070E082
:101F1000C6010E94810D4EA15FA168A579A541155A
:101F200051056105710559F0EE24E39409A91AA938
:101F30002BA93CA9401751076207730708F0E12C51
:101F40008823B9F0212C90E046C0F5013187208725
:101F5000178A17CF01E008AB30CF108211821282AE
:101F600013821DAA1EAA1FAA18AEA2CFF12CC6CF9B
:101F7000E12CD60198962C90222009F4AAC00BAD32
:101F80001CAD0115110509F4A0C0962D852D742DE9
:101F90006627980150E040E00E94773129013A011C
:101FA000AE014F5F5F4F63E070E0C6010E94810D9C
:101FB00049815A816B817C8141155105610571050B
:101FC00031F091E0441655066606770608F090E079
:101FD000882309F47FC0D5011B961C921E921A9784
:101FE00080E0811002C0FF24F394F60136A1F3A62D
:101FF000F4E09F1609F4B2C021E0311120E0D601CF
:102000009C962C93311002C0EE24E394F601E5A6D1
:10201000211001C091E0D6019E969C93F501808F1E
:10202000FAE4CF0ED11C99E1F601DE011196019080
:102030000D929A95E1F7F501A085B1859789028502
:1020400013854484558466847784408951896289E4
:1020500073892489358984809580A680B7808D8294
:102060009E82AF82B886BA87A9871C870B874D8668
:102070005E866F86788A498B5A8B6B8B7C8B3E8B06
:102080002D8B988F898F89E1FE013196D6010190C1
:102090000D928A95E1F780E0EC960FB6F894DEBFDA
:1020A0000FBECDBFDF91CF911F910F91FF90EF90A9
:1020B000DF90CF90BF90AF909F908F907F906F9068
:1020C0005F904F903F902F900895412C512C3201FA
:1020D00067CF90E018A98FEF113009F482CF890DF6
:1020E0008330F0F026E0921609F139E09316F1F012
:1020F00089AD8D708830B1F041E0E41699F054E07C
:10210000951621F19130E9F0F416E9F09F2DEF2CAE
:1021100062CF212C312C812CF12C90E0E12C5BCF73
:1021200085E05FCF83E05DCF8CEEB6CF84E0811099
:102130005CCFD60196963C91969721E09B962C9386
:102140005BCF82E0F4CFE92E81E0F1CF82E0811015
:102150004CCF81E0F60183A7E12C82E021E04FCF54
:102160008F929F92AF92BF92CF92DF92EF92FF92A7
:102170000F931F93CF93DF9300D0CDB7DEB7962E8A
:10218000D42E822EFC01EF5BFE4FC0805C012BEB56
:10219000A21A2EEFB20AF501E080F18001E010E012
:1021A00020E030E0AE014E5F5F4F8C2D0E94AA0B05
:1021B000892BA9F42A812D2128292A83F501E08081
:1021C000F180298301E010E020E030E0AE014F5FB4
:1021D0005F4F692D8C2D0E94A409892B81F08CEE14
:1021E0000F900F90DF91CF911F910F91FF90EF9083
:1021F000DF90CF90BF90AF909F908F90089580E038
:10220000EFCFEF92FF920F931F93FC01EB5BFE4F1A
:10221000E080F1808F5B9E4F01E010E020E030E035
:10222000FC0180810E94AA0B892B31F08CEE1F915A
:102230000F91FF90EF90089580E0F9CF9F92AF92B9
:10224000BF92CF92DF92EF92FF920F931F93CF93A3
:10225000DF931F92CDB7DEB77C015B016A01922E3E
:10226000198241E06FEF0E940F0A182F40E060E0F2
:10227000C7010E940F0A182B40E06FEFC7010E94B0
:102280000F0A182B992031F0A5016BECC7010E94B1
:102290000111182B002341F0AE014F5F5F4F6EEE2E
:1022A000C7010E940111182B41E06FEFC7010E9486
:1022B0000F0A182B41E060E0C7010E940F0A182B9B
:1022C00040E06FEFC7010E940F0A99819F7EF601DF
:1022D0009083812B0F90DF91CF911F910F91FF90F1
:1022E000EF90DF90CF90BF90AF909F900895EF92C6
:1022F000FF920F931F93CF93DF931F92CDB7DEB75B
:102300007C0100E041E06BE0C7010E940F0A182F3A
:1023100040E06BE0C7010E940F0A182BAE014F5F2F
:102320005F4F63E1C7010E940111812B0F5F99810B
:10233000977061F0033061F0882321F30F90DF91F3
:10234000CF911F910F91FF90EF9008950330B1F757
:1023500084EFF4CF0F931F93CF93DF931F92CDB7EA
:10236000DEB78A01AE014F5F5F4F613081F060E5FB
:102370000E940111811105C099819F5F990FF80199
:1023800090830F90DF91CF911F910F91089560E797
:10239000EFCFCF92DF92EF92FF921F93CF93DF9315
:1023A0001F92CDB7DEB77C0140E063E80E940F0AC0
:1023B000182F811117C0D12CC12CAE014F5F5F4F78
:1023C00063E8C7010E940111182F898181110AC099
:1023D000111108C08FEFC81AD80A88ECC816D104AA
:1023E00061F719EF41E063E8C7010E940F0A812BF2
:1023F0000F90DF91CF911F91FF90EF90DF90CF90E2
:1024000008950F931F93CF93DF931F92CDB7DEB73D
:102410008B01FC01E253FF4F2081AE014F5F5F4F04
:102420002430A1F463E10E9401119981292F2770C2
:10243000987109F08AEF243089F491E0F8019083D3
:102440000F90DF91CF911F910F91089564E10E9449
:1024500001118111F5CF998190FDEFCFF801108224
:10246000EFCFEF92FF920F931F93CF93DF931F92C3
:10247000CDB7DEB77C01198210E000E0BE016F5FCE
:102480007F4FC7010E94011281110CC099819130C8
:1024900049F00F5F1F4F083C110519F00E9403011E
:1024A000EDCF89EF0F90DF91CF911F910F91FF90AA
:1024B000EF900895CF93DF93EC01462F416060E0E9
:1024C0000E940F0A811111C0CE010E9431128111A8
:1024D0000CC0CE010E947711811107C040E060E07E
:1024E000CE01DF91CF910C940F0ADF91CF91089527
:1024F000CF92DF92EF92FF920F931F93CF93DF93D0
:102500001F92CDB7DEB78C01FC01F08841E060E896
:102510000E940F0A41E06FEFC8010E940F0A40E0DD
:1025200060E0C8010E940F0AF801E95DFE4F40819A
:1025300061E9C8010E940F0A41E060E0C8010E9401
:102540000F0A40E06FEFC8010E940F0A40E060E808
:10255000C8010E940F0AF1E0FF16F1F1FF1630F0FA
:1025600093E0F91609F44AC088EF0CC041E060E03E
:10257000C8010E940F0A91E09983C12CD12C7601E9
:10258000882389F00F90DF91CF911F910F91FF90D9
:10259000EF90DF90CF900895AE014F5F5F4F60E006
:1025A000C8010E940111EFEFCE1ADE0AEE0AFE0A00
:1025B000998190FF0AC0811108C0F8ECCF16D104B0
:1025C000E104F10449F789EFDDCF98ECC916D10495
:1025D000E104F104B9F6F7CF811103C0C8010E94EC
:1025E0005A0D42E060E0C8010E940F0A8111CACF73
:1025F000F801E15EFE4F94E09083C4CF811103C0E7
:10260000C8010E945A0D44E0EDCFCF92DF92EF92C5
:10261000FF920F931F93CF93DF9300D000D000D091
:10262000CDB7DEB7E0917707F091780783E0808B34
:1026300010922F06C0907707D0907807AE014B5FBD
:102640005F4F68EFC6010E94240D811135C02D81B6
:102650003E8168EC70E080E02115310521F0A8ECA6
:10266000B0E00E949931F601EF5BFE4F9081349605
:10267000E080F1806C837B838A83198204E010E020
:1026800020E030E0AE014F5F5F4F64E0892F0E9491
:10269000A409892B39F588EC90E0A0E0B0E0F601C0
:1026A000868B978BA08FB18F10922F068091770722
:1026B000909178070E94781280932F0681E0909184
:1026C0002F06911180E026960FB6F894DEBF0FBE5C
:1026D000CDBFDF91CF911F910F91FF90EF90DF90D1
:1026E000CF9008958CEEE8CFAF92BF92DF92EF9239
:1026F000FF920F931F93CF93DF93CDB7DEB7699708
:102700000FB6F894DEBF0FBECDBF8C015B017C011C
:1027100083EEE81A8EEFF80AF701D08040EC61E012
:10272000C8010E940F0A81113CC0F801108AC8013B
:102730000E947812811135C0C8010E9431128111A6
:1027400030C083E0F801E15EFE4F8083BE016F5F21
:102750007F4FC8010E94F50D811123C0C8010E945E
:10276000771181111EC041E06FEFC8010E940F0A6E
:10277000811117C0A50166EBC8010E94240D8111CB
:1027800010C040E06FEFC8010E940F0A811109C01C
:102790004D2D61E0C8010E940F0A811102C0F701AE
:1027A000D08269960FB6F894DEBF0FBECDBFDF9121
:1027B000CF911F910F91FF90EF90DF90BF90AF905E
:1027C00008950F931F93CF93DF931F92CDB7DEB77A
:1027D0008B011982AE014F5F5F4F61E00E940111D2
:1027E000811116C0998194FB332730F9F8013083A9
:1027F00093FB332730F9328392FB332730F931834F
:1028000096FB222720F92383991F9927991F9483E8
:102810000F90DF91CF911F910F9108952F923F92CA
:102820004F925F926F927F928F929F92AF92BF92E0
:10283000CF92DF92EF92FF921F93CF93DF93CDB7AA
:10284000DEB72B970FB6F894DEBF0FBECDBF6C017D
:102850001A011B861F821E82623009F06EC0AE0113
:10286000465F5F4F60E00E94AA11182F811108C0D7
:10287000AE01455F5F4F66E4C6010E940111182F4B
:10288000AA85B0E020E03FE24AE350E00E946C31CC
:102890002B013C0124EF420E21E0521E611C711CF1
:1028A000CB84D12CF12CE12C8FEFC81AD80AE80A7E
:1028B000F80A98EE892E93E0992EA12CB12CC30131
:1028C000B201A50194010E947731CA01B901A701A3
:1028D00096010E94A8316B017C01C301B20120ED79
:1028E00037E040E050E00E947731C701B601620F47
:1028F000731F841F951FA50194010E947731F10178
:102900002083318342835383812F2B960FB6F89413
:10291000DEBF0FBECDBFDF91CF911F91FF90EF9033
:10292000DF90CF90BF90AF909F908F907F906F90EF
:102930005F904F903F902F900895633009F043C00F
:10294000AE01465F5F4F60E00E94AA11182F20E0A1
:1029500030E0A9018111D3CFAE01465F5F4F60E047
:10296000C6010E94AA11182F811108C0AE014A5F4A
:102970005F4F61E5C6010E94240D182FEE81FF8193
:10298000AA85B0E020E03FE24AE350E00E946C31CB
:102990002B013C0124EF420E21E0521E611C711CF0
:1029A0006F01DD24F12CE12C04C0CC0CDD1CEE1CED
:1029B000FF1CFA95D2F78FEFC81AD80AE80AF80A6E
:1029C000EE24FF2476CFBE016F5F7F4F0E94E1139C
:1029D0008C81882351F1AE01465F5F4F60E0C601F4
:1029E0000E94AA11182FF12CE12C81111BC0AE01FD
:1029F0004A5F5F4F61E5C6010E94240D182F2E81AA
:102A00003F81C9019927B0E0A0E004C0880F991F59
:102A1000AA1FBB1F3A95D2F70196A11DB11D7C01DB
:102A2000112329F0D12CC12C25C0F12CE12CAE01B1
:102A3000465F5F4F61E0C6010E94AA11182F811105
:102A4000F1CFAE01485F5F4F61E7C6010E94240DE0
:102A5000182F28853985C9019927B0E0A0E004C066
:102A6000880F991FAA1FBB1F3A95D2F70196A11D87
:102A7000B11D6C01AA85B0E020E03FE24AE350E0DE
:102A80000E946C312B013C01E4EF4E0EE1E05E1E32
:102A9000611C711C88EE882E83E0982EA12CB12C2D
:102AA000C301B201A50194010E947731D601AE198C
:102AB000BF090E946C310FCF4F925F926F927F924D
:102AC000BF92CF92DF92EF92FF920F931F93CF931B
:102AD000DF9300D000D0CDB7DEB78A01AE014F5FE3
:102AE0005F4F0E940E14B82E81112AC069817A812D
:102AF0008B819C8128EE422E23E0522E612C712C7A
:102B0000A30192010E94773169017A019B01AC0116
:102B1000AFEFBFEF0E946C316C507E4F8F4F9F4FD5
:102B2000A30192010E9477317601DD24CC24C20EEC
:102B3000D31EE41EF51EF801C082D182E282F38228
:102B40008B2D0F900F900F900F90DF91CF911F91D1
:102B50000F91FF90EF90DF90CF90BF907F906F909C
:102B60005F904F9008955F926F927F928F929F92A5
:102B7000AF92BF92CF92DF92EF92FF920F931F938B
:102B8000CF93DF93CDB7DEB761970FB6F894DEBF72
:102B90000FBECDBF7C018B01FC018089FB018083CE
:102BA000AE014A5F5F4F68EFC7010E94240D582EA7
:102BB00081113AC1AE014F5F5F4F64E0C7010E94CF
:102BC000DB0C582E811130C12E813F81211531053A
:102BD00069F050E040E069817A818B819C810E949C
:102BE0007731F8012683378340875187F801868142
:102BF0009781A085B185F701868B978BA08FB18FC8
:102C0000F8011286AE014F5F5F4F60E2C7010E947C
:102C1000240D582E811108C189819A81009709F0ED
:102C20001AC1F701858D968DA78DB0A1F801858712
:102C30009687A787B08BF701128EAE014F5F5F4F6B
:102C400068E2C7010E94240D582E8111EDC08981D0
:102C50009A819F708115F8E09F0708F090514AEF24
:102C6000489F9001499F300D1124C901330FAA0BD1
:102C7000BB0BF801818B928BA38BB48B5801F1E2D3
:102C8000AF0EB11C470125E2820E911C380185E18F
:102C9000680E711CD12CC12CA501B601C7010E9480
:102CA000810D582E8111C0C0F40181914F01F301B3
:102CB00081933F01FFEFCF1ADF0A24E0A20EB11C7F
:102CC00086E0C816D10441F7AE014F5F5F4F61E067
:102CD000C7010E940111582E8111A6C08981F701F8
:102CE000E35EFE4F808387FFCAC081E0F80181AFB9
:102CF000F80181ADF701E75BFF4F808380ED97E03E
:102D0000A0E0B0E08A879B87AC87BD871E821F82C8
:102D10001886198686E39BE0A0E0B0E0F801828384
:102D20009383A483B583BE016F5F7F4FC7010E9469
:102D3000E113582E811178C08981811107C08A81E1
:102D4000811104C08B81882309F43EC0AE01465F27
:102D50005F4F62E0C7010E940E148111C1C08981DA
:102D60008823A9F08A859B85AC85BD85825B9D4FB4
:102D7000AF4FBF4FF8014281538164817581840F49
:102D8000951FA61FB71F82839383A483B5838B816E
:102D9000882309F477C08A859B85AC85BD858E54D0
:102DA0009D4FAF4FBF4F880F991FAA1FBB1FF80140
:102DB0004281538164817581840F951FA61FB71FBF
:102DC00082839383A483B5838C81811168C08D81B4
:102DD000882301F1AE01425F5F4F64E0C7010E94AA
:102DE0000E148E849F84A888B988F6E28F0EF2E0D4
:102DF0009F1EA11CB11CF801428153816481758121
:102E0000480D591D6A1D7B1D42835383648375835E
:102E1000811166C0F80182819381A481B581F70197
:102E2000828B938BA48BB58B852D61960FB6F8940E
:102E3000DEBF0FBECDBFDF91CF911F910F91FF90ED
:102E4000EF90DF90CF90BF90AF909F908F907F904A
:102E50006F905F90089533E0880F991F3A95E1F7DE
:102E6000B0E0A0E0F80185879687A787B08BF701CF
:102E7000858F968FA78FB0A381E0828FDECEF80179
:102E800011AE36CF8A81882309F49ECF8A859B852F
:102E9000AC85BD858C569D4FAF4FBF4F88CFAE01DF
:102EA0004A5F5F4F63E0C7010E940E148E809F80CF
:102EB000A884B984F4E98F0EF2E09F1EA11CB11C16
:102EC000F8014281538164817581480D591D6A1D45
:102ED0007B1D4283538364837583882309F477CFF2
:102EE000582EA2CFCF93DF93EC01862F69817A8190
:102EF0009881906221E02093D4049093D30410929F
:102F00003405109233050E94960689819A810E94A9
:102F10005B08888161E080620E9406071092360596
:102F20008093350589819A81DC01ED91FC910284C1
:102F3000F385E02D0995DF91CF910895CF93C62FAA
:102F4000C770683060F063E10E94721790E002C0C1
:102F500095958795CA95E2F78170CF91089562E1C2
:102F6000F3CFFF920F931F93CF93DF93EC01162FB4
:102F7000F42E683008F4022F602FCE010E947217E1
:102F8000177041E050E060E070E004C0440F551F4E
:102F9000661F771F1A95D2F7FF2051F0482B602F3C
:102FA000CE01DF91CF911F910F91FF900C944209B8
:102FB00040954823F4CF2F923F924F925F926F92A9
:102FC0007F928F929F92AF92BF92CF92DF92EF92B9
:102FD000FF920F931F93CF93DF93CDB7DEB769971F
:102FE0000FB6F894DEBF0FBECDBF00ED17E020E0B6
:102FF00030E00B871C872D873E871F86188A198A29
:103000001A8A40322EE4520761057105E0F45CEF44
:10301000B52E8B2D69960FB6F894DEBF0FBECDBFCF
:10302000DF91CF911F910F91FF90EF90DF90CF90A4
:10303000BF90AF909F908F907F906F905F904F90D8
:103040003F902F9008954E8B5F8B688F798F8C0106
:10305000BE016A5F7F4F0E94E113B82E8111D9CF64
:10306000CE88DF88E88CF98C88EEC81A88E0D80A08
:10307000E108F1088E81811106C08F81811103C0A2
:1030800088858823C1F1AE01455F5F4F62E0C801CA
:103090000E940E1481110AC18E81882391F08B85C4
:1030A0009C85AD85BE85825B9D4FAF4FBF4F8C1514
:1030B0009D05AE05BF0508F0AACFC81AD90AEA0ACD
:1030C000FB0A8885882309F471C08B859C85AD85B2
:1030D000BE858E549D4FAF4FBF4F880F991FAA1FBB
:1030E000BB1F8C159D05AE05BF0508F090CFC81A13
:1030F000D90AEA0AFB0A89858823D9F0AE01415F23
:103100005F4F63E0C8010E940E144F85588969899A
:103110007A894C565D4F6F4F7F4F4C155D056E059C
:103120007F0508F074CF8111C1C0C41AD50AE60A20
:10313000F70A8A85882309F46CCFBE016F5F7F4F41
:10314000C8010E94E1138C818823E9F1AE014B5E36
:103150005F4F60E0C8010E94AA11B82E81111CC007
:10316000AE014D5E5F4F61E5C8010E94240DB82E8F
:103170008B899C891C013324512C412C04C0220CC6
:10318000331C441C551C9A95D2F79FEF291A390A13
:10319000490A590ABB20C9F08E899F89A88DB98D2B
:1031A000F801828B938BA48BB58B33CF8F818823CF
:1031B00009F4A1CF8B859C85AD85BE858C569D4F2E
:1031C000AF4FBF4F8ECF312C212CAE014B5E5F4FE6
:1031D00061E0C8010E94AA11B82E8111DDCFA6E2DC
:1031E000CA1AA2E0DA0AE108F108AD89B0E020E0ED
:1031F0003FE24AE350E00E946C314B015C01B4EFC6
:103200008B0EB1E09B1EA11CB11CA8EEB3E0A70180
:1032100096010E946C312B013C01C501B40120EDE7
:1032200037E040E050E00E947731420E531E641EAA
:10323000751EC501B40128EE33E040E050E00E9465
:103240007731C301B2010E947731220E331E21145F
:103250003104E1F04101B12CA12CE1E08E1A91087A
:10326000A108B10890E080E0B501A4014427452BF6
:10327000462B472B31F0B694A794979487940196E8
:10328000F3CF982F88271C01280C391CA10161E776
:10329000C8010E94E509B82E81117ECFF801E153E3
:1032A000FF4FC082D182E282F38276CFB82EB1CEB8
:1032B0007F928F929F92AF92BF92CF92DF92EF92C6
:1032C000FF920F931F93CF93DF931F92CDB7DEB77B
:1032D0007C015B016A01722E4C0183EE881A8EEF2D
:1032E000980AF4011081198241E061E0C7010E944F
:1032F0000F0A81114AC060E4C7010E945A1281116D
:1033000044C0F1E07F121AC000E021E0AE014F5F3F
:103310005F4FB501C7010E941E11882389F00F90ED
:10332000DF91CF911F910F91FF90EF90DF90CF90A1
:10333000BF90AF909F908F907F900895F50110827D
:1033400042E061E0C7010E940F0A811124C060E0E1
:10335000C7010E945A1281111EC0F1E07F1218C0ED
:1033600001E020E0A601BE016F5F7F4FC7010E9410
:103370001E118111D4CF412F61E0C7010E940F0AB5
:103380008111CDCFF4011083CACFF5011082C7CFD0
:10339000F6011082F0CFF601F9CF2F923F924F92B3
:1033A0005F926F927F928F929F92AF92BF92CF92D5
:1033B000DF92EF92FF920F931F93CF93DF93CDB7DE
:1033C000DEB7AC970FB6F894DEBF0FBECDBF1C01C1
:1033D0007FA36EA359A748A71F82188619861A864D
:1033E0001B861C861D861E86198A1A8AFC01E85DCA
:1033F000FE4F20813181398F288FAC014F5E5E4FA7
:103400005B8F4A8FDA011C922C01BEEE4B1ABEEF85
:103410005B0AF20110823C01FDEE6F1AFEEF7F0A9B
:10342000D3011C92FC01EC5EFE4F1082319610829B
:103430003196108241E06FEF0E940F0A8B8B811151
:103440001DC140E06FE4C1010E940F0A8B8B811106
:1034500015C14CE26EE4C1010E940F0A8B8B8111F1
:103460000DC140E06FEFC1010E940F0A8B8B8111EB
:1034700005C144EB66EBC1010E940F0A8B8B8111E1
:10348000FDC040E060E8C1010E940F0A8B8B8111F2
:10349000F5C020E0AE014E5E5F4FBE016F5E7F4F14
:1034A000C1010E9458198B8B8111E8C01F821886B8
:1034B00019861A86F101E95EFE4FFD8FEC8F9E01A1
:1034C000295F3F4F4901A3E0AA2EB12CC12CD12C7A
:1034D000E12CF12C87012A8D3B8DAF0160E0C10109
:1034E0000E94F60B8B8B8111C9C04F81588569856D
:1034F0007A854C8B5D8B6E8B7F8BBE01615F7F4FBE
:10350000C1010E9474138B8B8111B8C08F8598897B
:10351000688D798D6817790708F0D3C0AA8DBB8DA7
:103520001C92F2011082D3011C92329610823196C5
:103530001082319610828C899D89AE89BF898C5406
:103540009F4FAF4FBF4FE6E0B695A79597958795EC
:10355000EA95D1F7880F991F880F991F8C5A9D4FB4
:10356000FC0180819181A281B381892B8A2B8B2BD5
:1035700091F42C893D894E895F892C3231054105B2
:10358000510548F42F5F3F4F4F4F5F4F2C8B3D8BC2
:103590004E8B5F8BD0CFAE01495F5F4F4A0173E026
:1035A000A72EB12CC12CD12CEC88FD880E891F8947
:1035B0002A8D3B8D4C8D5D8D61E0C1010E94F60B23
:1035C000811159C16F81788589859A856C8B7D8B36
:1035D0008E8B9F8BBE01615F7F4FC1010E94741370
:1035E000811149C18F859889A88DB98D11E063E05B
:1035F000462E512C612C712CA817B90720F010E031
:10360000412C512C3201C12CD12C7601C39460C0C5
:10361000D501C4010196A11DB11D8C8B9D8BAE8B74
:10362000BF8B86E0EAA5FBA5ACA5B02F01900D925B
:103630008A95E1F74E8C5F8C68A079A04AA35BA3C2
:103640006CA37DA36FC04E8C5F8C68A079A0AEA1E7
:10365000BFA14D925D926D927C921397E8A5F9A55A
:103660001083F101EC5FFE4F81E0808332978C91F3
:103670008083A8A5B9A58C91319680838B89AC965F
:103680000FB6F894DEBF0FBECDBFDF91CF911F9173
:103690000F91FF90EF90DF90CF90BF90AF909F90F1
:1036A0008F907F906F905F904F903F902F900895F4
:1036B000BEECBB8BE3CFEEECEB8BE0CFFEECFB8BF9
:1036C000DDCF10E0412C512C3201C12CD12C7601E0
:1036D0008F859889288D398D8217930708F0B7CF89
:1036E00046E0EA8DFB8D9E012F5F3F4FD90101908F
:1036F0000D924A95E1F7E88DF98D8E1B9F0BAC0179
:1037000070E060E04AA35BA36CA37DA353E0452E69
:10371000512C612C712CB1016F5E7E4F7BA76AA783
:103720002CA7032F9E01255F3F4F4C895D896E8931
:103730007F898C8D9D8D0E942B018B849C84AD8410
:10374000BE847FEF87169706A706B70609F4B0CFA9
:10375000D301C2010196A11DB11D8E8F9F8FA8A319
:10376000B9A3D501C4018C549F4FAF4FBF4F36E072
:10377000B695A795979587953A95D1F7880F991F94
:10378000880F991F8C5A9D4F11E0FC018081918117
:10379000A281B381892B8A2B8B2B09F410E0812F16
:1037A00090E0B0E0A0E08C159D05AE05BF0509F0E6
:1037B00082CFD501C40123E0B695A795979587954B
:1037C0002A95D1F7B501A4014770552766277727B9
:1037D00086309105A105B10508F070CFEA8DFB8D0B
:1037E000E80FF91F21E030E001C0220F4A95EAF707
:1037F0008081822B80836A8D7B8DC1010E940F0B9B
:10380000811139C0BE01615F7F4FC1010E947413F5
:10381000811131C08F859889288D398DAC01421B6B
:10382000530B8217930711F450E040E070E060E022
:10383000A88DB98DA817B90708F0EACE8AA19BA177
:10384000ACA1BDA184179507A607B70708F0FBCE6A
:10385000BE016F5F7F4FC1010E940F0B96E0FE011A
:103860003196D101AF5EBE4F01900D929A95E1F76E
:10387000882309F4ECCE8B8B01CF8F929F92AF926D
:10388000BF92CF92DF92EF92FF920F931F93CF934D
:10389000DF93CDB7DEB7ADB6BEB680912E062DB79D
:1038A0003EB7281B31090FB6F8943EBF0FBE2DBF9F
:1038B0008DB79EB701966C01E090FD05F12C8091CB
:1038C000F9059091FA05D601FC019F01281B390BDF
:1038D0002E153F051CF421912D93F7CF8091FE0505
:1038E000882359F18091F5059091F60528E097FD20
:1038F00009C068E671E00E94CC316DE270E00E9480
:10390000CC31262F8091F7059091F80568E097FD5E
:1039100008C068E671E00E94CC316DE270E00E9460
:10392000CC31F601EE0DFF1D90E1699FB00111242D
:10393000262B2083F70131967F0186010E0D1F1D76
:103940002091030630910406409101065091020631
:103950006091DF057091E0058091FF0581700E9404
:10396000D601E80EF91E86010E0D1F1D20910706D7
:103970003091080640910506509106066091E105D8
:103980007091E2058091FF05869581700E94D601B5
:10399000E80EF91E86010E0D1F1D20910B063091B9
:1039A0000C064091090650910A066091E30570915A
:1039B000E4058091FF0582FB882780F90E94D601EB
:1039C000E80EF91E86010E0D1F1D20910F06309185
:1039D000100640910D0650910E066091E50570911C
:1039E000E6058091FF0583FB882780F90E94D601B8
:1039F000E80EF91E86010E0D1F1D20911306309151
:103A0000140640911106509112066091E7057091DD
:103A1000E8058091FF05829581700E94D601E80E2D
:103A2000F91E86010E0D1F1D2091170630911806F4
:103A300040911506509116066091E9057091EA05CE
:103A40008091FF0585FB882780F90E94D601E80E4A
:103A5000F91E86010E0D1F1D20911B0630911C06BC
:103A60004091190650911A066091ED057091EE058E
:103A70008091000681700E94D601E80EF91E860131
:103A80000E0D1F1D20911F063091200640911D062E
:103A900050911E066091EB057091EC058091000637
:103AA000869581700E94D601E80EF91E86010E0DE2
:103AB0001F1D20912306309124064091210650912C
:103AC00022066091EF057091F0058091000682FB5F
:103AD000882780F90E94D601E80EF91E86010E0D96
:103AE0001F1D2091270630912806409125065091F0
:103AF00026066091F1057091F2058091000683FB26
:103B0000882780F90E94D6018E0D9F1D8601080F1F
:103B1000191F20912B0630912C06409129065091B7
:103B20002A066091F3057091F40580910006829554
:103B300081700E94D6010E9424064C0140912E06FD
:103B400080912D0650E07A01FFEFEF1AFF0A2DB7A2
:103B50003EB72E193F090FB6F8943EBF0FBE2DBFDA
:103B60000DB71EB70F5F1F4FEDB7FEB78183B601CC
:103B7000C80101960E940B33F4018381A701B801AB
:103B800080640E94AD040FB6F894BEBE0FBEADBEF9
:103B9000DF91CF911F910F91FF90EF90DF90CF9029
:103BA000BF90AF909F908F9008959091FC058917DA
:103BB00008F5E82FE695E695E6952091F905309110
:103BC000FA05E20FF32FF11D282F277081E090E016
:103BD000A0E0B0E004C0880F991FAA1FBB1F2A9560
:103BE000D2F780959081892380838091FB05811194
:103BF0000C943D1C08959091FC05891700F5E82F61
:103C0000E695E695E6952091F9053091FA05E20FE3
:103C1000F32FF11D282F277081E090E0A0E0B0E0A5
:103C200004C0880F991FAA1FBB1F2A95D2F72081B5
:103C3000822B80838091FB0581110C943D1C08959B
:103C4000AF92BF92CF92DF92EF92FF920F931F93AA
:103C5000CF93DF9360936E04EC01C25DDB4F7881FC
:103C60009C01220F331F220F331F671338C06FB719
:103C7000F894C090EF04D090F004E090F104F0903C
:103C8000F2046FBFF901E25DFC4F25E0C20ED11CCA
:103C9000E11CF11CC082D182E282F3822881BC0146
:103CA00062517D4F7B01FB013081231769F05A017E
:103CB0008C01222309F475C0009761F581E080939F
:103CC0001F058881F7018083DF91CF911F910F91AC
:103CD000FF90EF90DF90CF90BF90AF9008956FB7B7
:103CE000F894C090EF04D090F004E090F104F090CC
:103CF000F2046FBF225D3C4FF901008111812281E6
:103D000033810C151D052E053F0540F620916E04EC
:103D10002883C4CF8C30910591F10E94FB1D8CEA61
:103D2000C82E80E0D82EF6016491662349F083E81E
:103D300095E00E944103FFEFCF1ADF0A892B99F724
:103D4000C5010E94A00B88E892E00E942E0BC801DA
:103D50000E94A00B8CE892E00E942E0BB801110F7C
:103D6000880B990B97FF07C00E947F0B80E992E0B8
:103D70000E942E0BA6CF4AE00E943B0BF7CF80910A
:103D80001F05882351F081E080931A0581E090E0BF
:103D9000909319058093180594CF8CE00E94FB1D29
:103DA00090CF009719F410921F058BCF8C3091059E
:103DB00069F480911F05882341F081E080931A0502
:103DC00010921905109218057CCF8CE00E94D51D29
:103DD00078CF85ED8093BC0080917F059091800520
:103DE000A0918105B09182050796A11DB11D23E028
:103DF000B695A795979587952A95D1F72091BC0000
:103E000024FD03C010927D05089540917F055091D7
:103E100080056091810570918205452B462B472BCB
:103E200069F30097A105B10541F02AE22A95F1F75F
:103E300000C00197A109B109E1CF80917E050C94E2
:103E4000E5069F92AF92BF92CF92DF92EF92FF92E0
:103E50000F931F93CF93DF93CDB7DEB7A0970FB625
:103E6000F894DEBF0FBECDBF6C012FEDC20ED11C8A
:103E7000F601A080F7E0F12CAF1609F4EEC0B62EE3
:103E80008C0141E060E80E940F0AF82E41E06FEFDC
:103E9000C8010E940F0AF82A40E060E0C8010E94B1
:103EA0000F0AF82A46E06FEFC8010E940F0AF82AAD
:103EB000AE01425E5F4F63E8C8010E940111F82A1B
:103EC0004E8D446063E8C8010E940F0AF82A47E05B
:103ED0006FEFC8010E940F0AF82A41E061E8C801AB
:103EE0000E940F0AF82A0E940301F82A41E060E8C4
:103EF000C8010E940F0AF82A21E0B212C1C0A0FC3A
:103F000002C24BE664E9C8010E940F0AE82EC8010C
:103F10000E94C9118E29F82AAE01465E5F4F60E902
:103F2000C8010E94DB0CF82A8A8D9B8DAC8DBD8D5B
:103F3000992EE89497F897FBEE24E0F844E264E9C0
:103F4000C8010E940F0AF82AC8010E94C911F82A64
:103F5000AE01465E5F4F60E9C8010E94DB0CF82AA3
:103F60008A8D9B8D2C8D3D8D3C8B2D8B9E8B8F8BCD
:103F700045E264E9C8010E940F0AF82AC8010E94BC
:103F8000C911F82AAE01465E5F4F60E9C8010E9480
:103F9000DB0CF82A8C8D9D8D988F898F40E061E82D
:103FA000C8010E940F0AF82A46E06FEFC8010E947C
:103FB0000F0AF82AAE01425E5F4F63E8C8010E9413
:103FC0000111F82A4E8D4B7F63E8C8010E940F0A49
:103FD000F82A41E06FEFC8010E940F0AF82A41E079
:103FE00060E0C8010E940F0AF82A40E06FEFC801A4
:103FF0000E940F0AF82A40E060E8C8010E940F0AF8
:10400000F82A59F5F1E0BF1699F0A1FC23C0F80198
:10401000E052FF4F8F8D8083319688A18083BE014F
:104020006F5F7F4FC8018E519F4F0E94143312C0A3
:10403000A0FC10C0F801EE5FFE4F90823196E08246
:10404000DE0154967496035E1E4F8D9181930E1778
:104050001F07D9F7BA28F601B0828F2DA0960FB6A8
:10406000F894DEBF0FBECDBFDF91CF911F910F91AE
:10407000FF90EF90DF90CF90BF90AF909F9008950A
:10408000A1FC41C142E064E9C8010E940F0AE82E88
:10409000C8010E94C9118E29F82AAE01415E5F4F06
:1040A00060E9C8010E940111F82A4BE764E9C801E0
:1040B0000E940F0AF82AC8010E94C911F82AAE010D
:1040C000405E5F4F60E9C8010E940111F82A47E78E
:1040D00064E9C8010E940F0AF82AC8010E94C911A8
:1040E000F82AAE01465E5F4F60E9C8010E94DB0C12
:1040F000F82A4A8D5B8D6C8D7D8DDB01CA0129E12B
:10410000B695A795979587952A95D1F78983DB0171
:10411000CA0132E1B695A795979587953A95D1F75B
:104120008F778A83DB01CA01EBE0B695A795979557
:104130008795EA95D1F78F778B83DB01CA01F4E08D
:10414000B695A79597958795FA95D1F78F778C8334
:10415000440F440F440F48774E8F48E764E9C80185
:104160000E940F0AF82AC8010E94C911F82AAE015C
:10417000465E5F4F60E9C8010E94DB0CF82A8A8D19
:104180009B8DAC8DBD8DAC01BD012DE17695679504
:10419000579547952A95D1F72E8D240F2D83AC0185
:1041A000BD0136E176956795579547953A95D1F7D4
:1041B0004F774E83AC01BD01EFE07695679557953B
:1041C0004795EA95D1F74F774F83292F2F77288787
:1041D000AC01BD0176956795579547954F7749870F
:1041E000982F9295990F990F90749E8F49E764E9E3
:1041F000C8010E940F0AF82AC8010E94C911F82AB2
:10420000AE01465E5F4F60E9C8010E94DB0CF82AF0
:104210008A8D9B8DAC8DBD8DAC01BD012AE176955B
:104220006795579547952A95D1F72E8D240F2A87A4
:10423000AC01BD0133E176956795579547953A9561
:10424000D1F74F774B87AC01BD01ECE076956795D0
:1042500057954795EA95D1F74F774C87AC01BD014B
:10426000F5E07695679557954795FA95D1F74F778D
:104270004D87982F990F990F9C779E8F4AE764E995
:10428000C8010E940F0AF82AC8010E94C911F82A21
:10429000AE01465E5F4F60E9C8010E94DB0CF82A60
:1042A0008A8D9B8DAC8DBD8DAC01BD012EE17695C7
:1042B0006795579547952A95D1F72E8D240F2E8710
:1042C000AC01BD0137E176956795579547953A95CD
:1042D000D1F74F774F872A2F2F77288BAC01BD015D
:1042E000E9E07695679557954795EA95D1F74F7729
:1042F000498BF2E0B695A79597958795FA95D1F7F2
:104300008F778A8B1B8AE12C912C48CE2F923F927B
:104310004F925F926F927F928F929F92AF92BF92D5
:10432000CF92DF92EF92FF920F931F93CF93DF9381
:10433000CDB7DEB7C754D1090FB6F894DEBF0FBEB4
:10434000CDBF0AE010E0882311F004E610E060E041
:1043500087E00E94C3036801110FEE08FF08C70140
:10436000B6010E947B0461E087E00E94C303C7019D
:10437000B6010E947B04E0917707F0917807EF5B2C
:10438000FE4F89E28083E0917707F0917807EE5B3A
:10439000FE4F81E08083E0917707F0917807ED5B35
:1043A000FE4F80E991E091838083E0917707F0915F
:1043B0007807EB5BFE4F83ED95E09183808310924D
:1043C00036051092350510923405109233050E947F
:1043D000C7068CEA91E09093300580932F058DEA13
:1043E00091E0909332058093310521E04EEF69E82A
:1043F00080E396E00E94B010811106C040E068E8BA
:1044000080E396E00E940F0AAE01455C5F4F60ECCE
:1044100080E396E00E94011110920F0788EE93E06E
:1044200090936A078093690780E991E090936C0705
:1044300080936B0785E89BE6A1E0B0E080936D0771
:1044400090936E07A0936F07B093700784EA90E78C
:10445000A9E0B0E08093F8069093F906A093FA06DD
:10446000B093FB0610924D0610924E0610924F0626
:1044700010925006CE0101962C01BC0180E396E01B
:104480000E94B315182F81110AC019821A828AE37B
:10449000F201A0E4B6E001900D928A95E1F784E67E
:1044A00090E0909352078093510784E893E09093B3
:1044B00054078093530784EF91E0909356078093BD
:1044C000550780E09AE0909359078093580781E060
:1044D0008093680741E060E880E396E00E940F0A5D
:1044E000782E41E06FEF80E396E00E940F0A782A71
:1044F000712A40E060E080E396E00E940F0A782A8B
:10450000AE01415C5F4F61E980E396E00E940111DA
:10451000782A8FAD8093570741E060E080E396E012
:104520000E940F0A782A40E06FEF80E396E00E9435
:104530000F0A782A40E060E880E396E00E940F0AC4
:10454000782A10E000E0FF24F39471107DC103305D
:10455000110509F49CC07CF401301105D9F002303A
:10456000110509F491C0F0925506F801E15DF94F8B
:10457000F6A280E025C00430110509F48BC020E0CC
:104580004FEE0530110579F760E680E396E00E9472
:10459000B01014C0409165065091660660916706A0
:1045A00070916806E9E07695679557954795EA9585
:1045B000D1F764E480E396E00E94E5098823A9F23C
:1045C0000F5F1F4F782E0630110509F0BECF811105
:1045D0006EC0109257061092580622E04EEF60E629
:1045E00080E396E00E94B010811161C010925906DC
:1045F00020E14FEE60E680E396E00E94B01081116A
:1046000056C010925A0680E090E0A2E1B0E080939C
:10461000610690936206A0936306B093640680914E
:10462000560681113AC080E090E4A0E0B0E08093AB
:10463000650690936606A0936706B093680680E0CF
:1046400090E0A3E2B0E08093690690936A06A0939D
:104650006B06B0936C0610926D0610926E06109267
:104660006F06109270068FEF80934D074FEF61E059
:1046700080E396E00E940F0A91E090934F0781112A
:1046800016C01092340713C0F09257066ECFF09206
:1046900058066BCF20E04EEF77CF40E250E064E465
:1046A00080E396E00E94E509882309F4BCCF80935B
:1046B0002F0649E26AE880917707909178070E9477
:1046C0000F0A80932F066AE070E080E090E00E947D
:1046D0007B0480912F068111A4C2E0917707F091AD
:1046E0007807EF5BFE4F89E2808362E080E396E02B
:1046F0000E94211F882309F4A9C080932F068111ED
:104700000BC08091DA07813021F48091DB07813082
:1047100019F08BEF80932F0680912F068111F1C045
:1047200060907707709078078AE3F20111928A957A
:10473000E9F725961FAE1EAE259728961FAE28973F
:1047400027961FAE279723961CAE1DAE1EAE1FAE3A
:10475000239761E0C3010E94211FF301EE5FFE4F2A
:104760002080A22CB12CD12CC12C31963080F1E0CC
:10477000F31508F4B8C03F12AFC081E2A816B10427
:10478000C104D10408F0AFC041E06FEFC3010E9443
:104790000F0A81111AC040E06FE4C3010E940F0AA2
:1047A000811113C04CE26EE4C3010E940F0A811113
:1047B0000CC040E06FEFC3010E940F0A811105C0D9
:1047C00044EB66EBC3010E940F0A93012F5E3E4F3C
:1047D000F901108231961082319610823196108242
:1047E0003196108231961082E12CF12C8701332012
:1047F00009F4EEC0D801C7018C549F4FAF4FBF4F93
:1048000046E0B695A795979587954A95D1F7880F75
:10481000991F880F991F8C5A9D4FFC0180819181AF
:10482000A281B381892B8A2B8B2B09F0D1C0FCE2AA
:10483000EF16F1040105110509F4CAC08FEFE81A5B
:10484000F80A0F4F1F4FD6CF872D31CF8091100719
:1048500081112AC062E972E089EB97E00E9414336B
:1048600063E972E089E797E00E9414336CEC72E030
:1048700089E997E00E94143349ED57E060EC80E34A
:1048800096E00E940111811138CFA20162EC80E311
:1048900096E00E94011191E09093DA079981929538
:1048A0009F709093DB0729CF1091110762E177E0A9
:1048B00089EB97E00E941433112391F2133238F4FC
:1048C0006FE972E0103271F66BEA72E0CBCF67EB02
:1048D00072E0173238F6F8CF9DE0A916B104C10492
:1048E000D10408F451CFAE014A5B5F4FBE01615C59
:1048F0007F4FC3010E94CD19882309F47EC08093A5
:104900002F0680912F0681110CC0AE014D5B5F4FC9
:10491000B20180917707909178070E94CD1980931A
:104920002F0680912F0681110FC021E0AE01455C5A
:104930005F4FBE01615C7F4F809177079091780750
:104940000E94581980932F0680912F06811169C10A
:10495000E0917707F0917807108AE0917707F0915E
:104960007807FF24F394F5A2009177071091780758
:10497000F80145A956A967A970AD89E076956795B4
:10498000579547958A95D1F764E4C8010E94E509D7
:10499000882309F447C180932F06811142C1E09119
:1049A0007707F091780781E080A7E0917707F09191
:1049B0007807FD9684ED98E0A0E0B0E080839183D5
:1049C000A283B38380912F06882309F42EC129C1C5
:1049D000FE01FB964F01A301495E5E4F632DC301AB
:1049E0000E94F60B811188CF81E0F301EC5FFE4F4E
:1049F00080833297208231963082F301E85CFE4F4B
:104A0000808160E071E0811103C032976081718123
:104A1000C3010E94370A811172CF44E06AE0C301EA
:104A20000E940F0A81116BCF20E04FEE64E8C301B2
:104A30000E94B010811163CF84E0F301E253FF4F75
:104A40008083C3010E947711811159CF41E06FEF3C
:104A5000C3010E940F0A382EAE014D5B5F4F64E820
:104A6000C3010E94240D382A40E06FEFC3010E9469
:104A70000F0A832909F043CFF301E853FF4F25962E
:104A80008EAD9FAD259724E0880F991F2A95E1F7F9
:104A9000B0E0A0E080839183A283B383B201C3011D
:104AA0000E94B31581112BCFAE01495B5F4F69E0C6
:104AB000C3010E940111811122CF28968FAD289742
:104AC000817028968FAF2897F301E25EFE4F8083B6
:104AD0008AE3F201D301509601900D928A95E1F795
:104AE000AE01495B5F4F61E0C3010E94011181117A
:104AF00006CF8301035E1E4F28968FAD2897F801DD
:104B000080831BAEAE01455C5F4F61E0C3010E9434
:104B100001119BAD8111F3CEF92EE894F4F894FFC6
:104B200011C04F2D61E0C3010E940F0A8111E7CE31
:104B3000F801F082F3014289538964897589C301C0
:104B40000E94DB171BAEAE01455C5F4F61E0C30105
:104B50000E9401119BAD8111D2CEF92EE894F2F89A
:104B600092FF11C04F2D61E0C3010E940F0A811115
:104B7000C6CEF801F082F3014289538964897589B0
:104B8000C3010E94DB1783E0F301E15EFE4F8083E7
:104B9000AE014B5B5F4F60E0C3010E94AA1181111F
:104BA000AECE26968FAD2697F301E852FF4F808355
:104BB000AE014B5B5F4F61E0C3010E94AA118111FE
:104BC0009ECE26968FAD2697F301ED52FF4F808340
:104BD000AE01455C5F4F63E0C3010E945C1581112B
:104BE0008ECE8BAD9CADADADBEADF301EC52FF4FA3
:104BF00080839183A283B383AE01455C5F4F64E001
:104C0000C3010E945C1581117ACEF301E153FF4F7D
:104C10004BAD5CAD6DAD7EAD4083518362837383DC
:104C20006ECEFFCFF801F6A2B6CEC95BDF4F0FB64E
:104C3000F894DEBF0FBECDBFDF91CF911F910F91D2
:104C4000FF90EF90DF90CF90BF90AF909F908F90AC
:104C50007F906F905F904F903F902F9008951F929C
:104C60000F920FB60F9211248F939F938091E100C2
:104C70009091E100937F9093E10083FF0FC0109229
:104C8000E90091E09093EB001092EC0092E3909396
:104C9000ED0010922E0598E09093F00082FF22C064
:104CA00093E09093E9009091F200992319F09AE330
:104CB0009093E80090910805992341F090910805A0
:104CC000915090930805911101C05D9890912D0528
:104CD000992341F090912D05915090932D059111BC
:104CE00001C0289884FF18C08091E2008E7E816008
:104CF0008093E2008091E1008F7E8093E1008091BB
:104D000009058E7E8061809309059F918F910F9098
:104D10000FBE0F901F90189580FFF7CF8091E20093
:104D20008E7E80618093E2008091E1008E7E809390
:104D3000E100809109058E7E8160E5CF1F920F9280
:104D40000FB60F921124CF92DF92EF92FF920F9342
:104D50001F932F933F934F935F936F937F938F9303
:104D60009F93AF93BF93EF93FF93CF93DF93CDB711
:104D7000DEB76C97DEBFCDBF1092E9008091E800EE
:104D800083FF25C068E0CE0145960E94EF0282EFC6
:104D90008093E8008D8987FF39C09091E80090FFEB
:104DA000FCCF982F907609F034C19E894F89588D99
:104DB0002F89F88C911131C0803861F580910A05F6
:104DC0008093F1001092F1008EEF8093E8006C96D2
:104DD0000FB6F894DEBF0FBECDBFDF91CF91FF912C
:104DE000EF91BF91AF919F918F917F916F915F9163
:104DF0004F913F912F911F910F91FF90EF90DF9076
:104E0000CF900F900FBE0F901F9018959EEF90932C
:104E1000E800C7CF1092F100D5CF913059F481113D
:104E2000D3CF4130510581F680910A058D7F809363
:104E30000A05CACF933049F48111C6CF41305105DC
:104E400019F680910A058260F2CF953041F4809185
:104E5000E80080FFFCCF20682093E300B5CF9630B8
:104E600009F0A9C00B8D1C8D22E01092E900109270
:104E7000060510920505F2122EC01092040510923C
:104E800003050E9410031F8299E09983FA8291E042
:104E90009E8390EA98879AEF998720910505309133
:104EA0000605275F3F4F3C832B838D831092E900DB
:104EB0001092060510920505109304050093030552
:104EC00049E050E0BE016F5F7F4F80E00E94B80272
:104ED0000E94100379CF10930405009303050E94EC
:104EE000FC02DC0112960D911C910115110509F4CB
:104EF00051C1D801ED91FC910480F581E02DBE01F6
:104F00006B5E7F4FC8010995009709F03EC1F8011B
:104F100000851185EACFF3E0FF120EC08F89882348
:104F200009F440C0823061F440E860E185E491E03A
:104F30000E948502811148CF81E28093EB0047CF28
:104F4000813029F440E867E08DE391E0F1CF8330D0
:104F500099F70E94FC02DC011296ED90FC908E0104
:104F60000F5F1F4F6801E114F10479F0D701ED9153
:104F7000FC910680F781E02DB801C7010995080F63
:104F8000111DF701E084F184EECFD8011C92F601E7
:104F900001900020E9F73197BF016C197D0940E0CD
:104FA000C601C6CF67E271E0FB01449150E080E8A2
:104FB0000E94B80209CF973009F4BECF983021F48F
:104FC00081E08093F10000CF993009F0FDCE83702D
:104FD00009F0B2CFE4EFF1E081E031E096E3219116
:104FE000222371F08093E9003093EB00DF011197E9
:104FF0002C912093EC009093ED008F5F873079F730
:105000008EE78093EA001092EA008F8980932E0544
:10501000DBCE8B8D9C8D1092E900109206051092CC
:1050200005059093040580930305898D811192C035
:105030008E899D89913A49F4813209F07DCF47E00C
:1050400050E06EEF71E080E0B3CF913209F074CFA1
:10505000833269F48F89988DB0E0A0E08093FA01E3
:105060009093FB01A093FC01B093FD01ADCE803283
:1050700069F48091E80082FFFCCF67E08EEF91E059
:105080000E94EF028BEF8093E8009ECE823209F0FF
:105090009BCE8F8980930502EEEFFFE78591949177
:1050A0008B3F9C4D51F1E0E0F8E08091FE01909142
:1050B000FF01A0910002B0910102803B9440A10544
:1050C000B105F1F48091050280FD1AC0EE3F8AE03F
:1050D000F80789F587E797E79183808380916000DF
:1050E0008093070588E19BE00FB6F894A89580931C
:1050F00060000FBE9093600067CEEEEFFAE0D5CF70
:10510000808191818737974709F05ECEA89580917D
:105110006000886180936000809107058093600043
:10512000EE3F2AE0F20789F08091FE0A9091FF0A93
:105130009183808349CE808191818737980751F28E
:105140009093FF0A8093FE0AC5CF1092FF0A109237
:10515000FE0A3ACE0E94FC02DC0112960D911C91CF
:105160000115110509F4E8CED801ED91FC910190EB
:10517000F081E02DBE016B5E7F4FC8010995811162
:1051800023CEF80100851185EBCF181619060CF413
:105190001BCED2CEF1E0FF12BECE6BE271E004CFA7
:1051A0001F920F920FB60F9211242F933F938F935C
:1051B0009F93AF93BF938091EF049091F004A091DF
:1051C000F104B091F2043091EE0423E0230F2D3767
:1051D00058F50196A11DB11D2093EE048093EF04B4
:1051E0009093F004A093F104B093F2048091F3043F
:1051F0009091F404A091F504B091F6040196A11DDC
:10520000B11D8093F3049093F404A093F504B0933C
:10521000F604BF91AF919F918F913F912F910F9085
:105220000FBE0F901F90189526E8230F0296A11D20
:10523000B11DD2CF1F920F920FB60F9211242F9350
:105240003F934F935F936F937F938F939F93AF930E
:10525000BF93EF93FF938091B900887F803609F464
:105260004AC0F0F5883209F4A7C018F5803109F476
:105270009BC0B8F4882309F4F9C0883009F494C0BD
:10528000FF91EF91BF91AF919F918F917F916F911E
:105290005F914F913F912F910F900FBE0F901F90F4
:1052A0001895883109F488C0803251F780935B05E6
:1052B00014C0803409F49DC040F48033B9F38833BE
:1052C000F9F680935B0585ECB0C0803509F485C0A4
:1052D000883509F496C0883499F60E94E91ED0CF2B
:1052E000883909F48CC038F5883729F050F48836AD
:1052F00011F0803729F683E080937D051092D20467
:1053000057C0883809F47BC0803919F0803809F01B
:10531000B7CF8091D204803208F071C0E091D204FE
:1053200081E08E0F8093D2048091BB00F0E0EE54B8
:10533000FB4F80833DC0803B39F0E0F4803A09F4B4
:1053400079C0883A09F09CCF84E080937D05109263
:10535000B1041092B004E0912F05F0913005099549
:105360008091B00481110FC081E08093B00410924D
:10537000900409C0803C09F4A6CF883C09F4A3CF6F
:10538000883B09F07DCFE091B10481E08E0F8093DE
:10539000B104F0E0E057FB4F80818093BB00909117
:1053A000B1048091B00429C0809158058093BB005E
:1053B00085EC8093BC0064CF90915A05809159058B
:1053C000981758F5E0915A0581E08E0F80935A05A1
:1053D000F0E0E95CFA4F8081E9CFE0915A0581E085
:1053E0008E0F80935A058091BB00F0E0E95CFA4F84
:1053F000808390915A05809159059817C8F285E8E5
:10540000D8CFE0915A0581E08E0F80935A058091A4
:10541000BB00F0E0E95CFA4F808380915C0581116C
:105420005CCF81E08093570584EA8093BC001092A2
:105430007D0526CF85EC8093BC0010927D05809180
:10544000D204803230F4E091D204F0E0EE54FB4F0D
:1054500010826091D20470E0E0913105F091320544
:1054600082EB94E009951092D2040ACF10925B056A
:1054700034CFEF92FF920F931F93CF93DF93CDB76B
:10548000DEB7C659D1090FB6F894DEBF0FBECDBF47
:10549000109286051092850588EE93E0A0E0B0E0BA
:1054A0008093870590938805A0938905B0938A051A
:1054B00028E632E030938405209383052FEF3FEFF9
:1054C0003093900520938F051092D6051092D50544
:1054D0008093D7059093D805A093D905B093DA05AA
:1054E0008AE792E09093D4058093D3058EEA91E009
:1054F000EFE2F6E0DF019C011D9221503040E1F720
:1055000080E396E090937807809377071092FA05EE
:105510001092F9051092FD051092020610920106F4
:105520008FEF93E090930406809303061092060693
:1055300010920506909308068093070610920A06BB
:105540001092090690930C0680930B0610920E069B
:1055500010920D069093100680930F06109212067B
:10556000109211069093140680931306109216065B
:1055700010921506909318068093170610921A063B
:105580001092190690931C0680931B0610921E061B
:1055900010921D069093200680931F0610922206FB
:1055A00010922106909324068093230610922606DB
:1055B00010922506909328068093270610922A06BB
:1055C0001092290690932C0680932B0643E040937B
:1055D0002D0620E42093FC051092FE058BE18093BC
:1055E000FF054093000635E0398391E09A8389E016
:1055F0008B8354E0E52EEC8261EA6D839E8355E84F
:105600005F83488739878A8749E14B879C8749E2CE
:105610004D872E8745E14F87188A45E2498B9A8B43
:10562000E5E7EB8B9C8B75E97D8B2E8B25E52F8B2E
:10563000188E25E6298F1A8E51E85B8F22E02C8F79
:105640003D8F9E8F8F8F98A3F6E1FF2EF9A29AA32C
:1056500000E80BA316E21CA3BFEFBDA3AFE7AEA308
:10566000EFA3F0E1F8A779A7EAA66BA71CA68DA780
:1056700040E34EA78FA741E348AB89AB43E34AAB76
:105680008BAB44E34CAB5DAB2EAB40EC4FAB38AFD8
:1056900029AFFAAE9BAF0CAF1DAFBEAFAFAF219637
:1056A000EFAF21972296FFAF229723967FAF2397E4
:1056B00024962FAF249725966FAF259726961FAE79
:1056C000269727968FAF27979AEB28969FAF289714
:1056D00029968FAF29978BEB2A968FAF2A972B9617
:1056E0005FAF2B972C962FAF2C972D964FAF2D9702
:1056F0002E964FAF2E978DE490E00E94E6317C010C
:105700008DE4FE013196D70101900D928A95E1F763
:1057100087E090E00E94E6318C01DC0111961C923A
:105720001E921396FC92EE9212978DE490E01596DD
:105730009C938E93149716961C920E942406FC014B
:10574000A385B485109709F077C0148703878585F2
:105750009685D80114962D913C91820F931F9687C0
:1057600085879091FC05892F8695869586959770FB
:1057700009F06AC08093FD051091FD05812F90E02E
:10578000009711F481E090E00E94E6319093FA05D1
:105790008093F90581E09091FE05911101C080E0B0
:1057A000145F810F80932E061092E0051092DF05A2
:1057B0001092E2051092E1051092E4051092E305C3
:1057C0001092E6051092E5051092E8051092E705A3
:1057D0001092EA051092E9051092EC051092EB0583
:1057E0001092EE051092ED051092F0051092EF0563
:1057F0001092F2051092F1051092F4051092F30543
:105800008FEF9FEF9093F6058093F5059093F80541
:105810008093F70590E080E02091FD052817190698
:10582000A9F0A4F0E091F905F091FA05E80FF91F4D
:1058300010820196F1CFDC018D919C911197009718
:10584000D1F70D931C9383CF8F5F94CFCA56DF4F50
:105850000FB6F894DEBF0FBECDBFDF91CF911F9181
:105860000F91FF90EF900895CF93DF93CDB7DEB700
:10587000C357D1090FB6F894DEBF0FBECDBF7894E1
:1058800084B5826084BD84B5816084BD85B5826045
:1058900085BD85B5816085BD80916E0081608093F6
:1058A0006E0010928100809181008260809381005F
:1058B000809181008160809381008091800081606F
:1058C000809380008091910082608093910080910C
:1058D000910081608093910080919000816080931D
:1058E00090008091C10084608093C1008091C100CC
:1058F00082608093C1008091C10081608093C1006B
:105900008091C30081608093C3008091C000826059
:105910008093C0008091C20081608093C20080911A
:105920007A00846080937A0080917A00826080930C
:105930007A0080917A00816080937A0080917A0069
:10594000806880937A0010922E0510920A051092BA
:1059500009058091D70081608093D70080EA809309
:10596000D80089B5806189BD89B5826089BD09B4D7
:1059700000FEFDCF61E070E080E090E00E947B04DB
:105980008091D8008F7C80618093D8008091E00066
:10599000807F8093E0008091E1008E7E8093E10023
:1059A0008DE08093E200559A209A5D9828988FEFB9
:1059B0009FEF9093900580938F0564E670E080E000
:1059C00090E00E947B0482E10E94AE0183E10E948C
:1059D000AE0184E10E94AE0185E10E94AE01AAE021
:1059E000EA2EF12C10E000E082E10E943404080F5E
:1059F000191F21E0E21AF108B9F7C8016AE070E066
:105A00000E94CC3180E092E0861B970B9093250595
:105A100080932405FAE0EF2EF12C10E000E083E102
:105A20000E943404080F191F41E0E41AF108B9F785
:105A3000C8016AE070E00E94CC3180E092E0861BF1
:105A4000970B909323058093220580E00E94862186
:105A500084ED92E00E942E0B80E992E00E942E0BD2
:105A6000E0917707F0917807FF24F394F5A2109264
:105A70002F060091770710917807D801D5964D91A0
:105A80005D916D917C91D897E9E0769567955795F2
:105A90004795EA95D1F764E4C8010E94E5098111B0
:105AA00002C0F801F6A280932F06811151C0009127
:105AB000770710917807D80196968C91811118C0BC
:105AC00080E090E4A0E0B0E0F80185AB96ABA7AB36
:105AD000B0AFE0917707F091780780E090E0A2E125
